:020000041400E6
:1000000010550010F5010014FD010014FF0100144B
:100010000102001403020014050200145A5A5A5A2D
:100020000F0200140F0200140F0200140702001444
:10003000090200140F0200140B0200140D02001438
:100040001102001411020014110200140F02001416
:100050001102001411020014110200141102001404
:10006000592100147121001411020014110200140E
:1000700011020014110200141102001411020014E4
:1000800011020014110200141102001411020014D4
:1000900011020014110200141102001411020014C4
:1000A00011020014110200141102001411020014B4
:1000B00011020014110200141102001411020014A4
:1000C0000511001411020014110200141102001491
:1000D0001102001411020014110200141102001484
:1000E0001102001411020014110200141102001474
:1000F0000F02001411020014110200141102001466
:100100000F020014110200140F0200141102001457
:100110001102001400F002F800F05CF80AA090E868
:10012000000C82448344AAF10107DA4501D100F0B2
:1001300051F8AFF2090EBAE80F0013F0010F18BF23
:10014000FB1A43F00103184780280000A028000094
:100150000A444FF0000C10F8013B13F0070408BFED
:1001600010F8014B1D1108BF10F8015B641E05D08B
:1001700010F8016B641E01F8016BF9D113F0080F40
:100180001EBF10F8014BAD1C0C1B09D16D1E58BFD2
:1001900001F801CBFAD505E014F8016B01F8016B09
:1001A0006D1EF9D59142D6D370470000002300247C
:1001B00000250026103A28BF78C1FBD8520728BF77
:1001C00030C148BF0B6070471FB502F067FB1FBD11
:1001D00010B510BD00F07CF81146FFF7F5FF02F0F6
:1001E0004BFB00F09AF803B4FFF7F2FF03BC02F0F8
:1001F00023FB00000A4880470A480047FEE7FEE765
:10020000FEE7FEE7FEE7FEE7FEE7FEE7FEE7FEE7C6
:10021000FEE7000004480549054A064B7047000008
:10022000691E001415010014104300101055001031
:1002300010530010105300104FF000020429C0F0BA
:10024000128010F0030C00F01B80CCF1040CBCF108
:10025000020F18BF00F8012BA8BF20F8022BA1EB5A
:100260000C0100F00DB85FEAC17C24BF00F8012B3F
:1002700000F8012B48BF00F8012B70474FF0000237
:1002800000B5134694469646203922BFA0E80C508C
:10029000A0E80C50B1F12001BFF4F7AF090728BF67
:1002A000A0E80C5048BF0CC05DF804EB890028BFE3
:1002B00040F8042B08BF704748BF20F8022B11F00C
:1002C000804F18BF00F8012B704770477047704788
:1002D000754600F029F8AE4605006946534620F001
:1002E0000700854618B020B5FFF794FFBDE8204011
:1002F0004FF000064FF000074FF000084FF0000BE2
:1003000021F00701AC46ACE8C009ACE8C009ACE894
:10031000C009ACE8C0098D4670470446AFF30080C1
:100320002046FFF760FF000000487047B042001011
:1003300010B501F08FFD44220621022000F078FA6A
:10034000D2220521022000F073FA44220721012065
:1003500000F06EFA0D4C012306220521204600F024
:1003600059FA0A480121A03081710B460C2220461F
:1003700000F050FA01230B221946204600F04AFAF9
:100380000249012020310873C87210BD00400F409F
:10039000044A81F0010118B1012800D1D1727047DF
:1003A0001173704720400F4001F008BD10B50A0AD4
:1003B000CCB200210846012A04D0022A05D0032A23
:1003C00015D106E00B49122011E00A491231212013
:1003D0000DE0084A0C3A24B1012C04D0022C06D1BD
:1003E00003E0116802E0516800E091680878196044
:1003F00010BD00004800001005490028486802D0E0
:1004000020F0200001E040F020004860704700002C
:10041000003004400248416C41F0010141647047E2
:10042000000005401C2806D2034901EB8000C16D85
:1004300021F00101C1657047000005400549886948
:100440008A6920F00200824200D0886120F0010019
:10045000886170470000054010B5012401B10324F4
:100460000AB144F00404022B01D144F02004B0F599
:10047000917F03D9044941F8304010BD034901EB95
:10048000C000C0F8004110BDE8170540001005404D
:10049000034901EB0010016A21F00101016270477C
:1004A000000005401C2805D2054901EB8000C06D05
:1004B000C10701D011207047C0F3046070470000ED
:1004C0000000054010B5FFF7EDFFBDE8104000F05B
:1004D00001B80000024600201249112A0CD2DFE8C0
:1004E00002F0090E0B0C0B0B0E100B120B0B14165B
:1004F000181A1C004FF4004070470B48704708461C
:1005000070470A48704700F03DB8002106E001211D
:1005100004E0022102E0032100E00421104600F083
:1005200007B80000001BB70080F0FA0200389C1CDE
:1005300010B50B46084600F017F80246184600F0C2
:1005400009F804461046FFF7C5FF641CB0FBF4F041
:1005500010BD0000034901EB8000806CC0F38300F4
:100560007047000000000540054901EB8000806CE9
:10057000C10701D011207047C0F30460704700002C
:1005800000000540F8B5144D6C6CC4F30360FFF730
:10059000A1FF12A109680091296CC90713D0C4F307
:1005A0000742C4F30131C4F30125C4F3C013521C44
:1005B000C4F38014491C1DF80550234305D0B0FB3B
:1005C000F1F05043F8BD0020F8BD6B00B2FBF3F230
:1005D000B0FBF1F05043F8BD0000054001020408F3
:1005E000024901EB0010C06970470000000005409F
:1005F0002DE9F041B0F5917F03D9194951F8304008
:1006000004E0184901EBC001D1F80041E10725D011
:100610001C210022144B0DE033F81660864208D8E6
:100620006D88854205D302EB420003EB400001795F
:1006300007E0521C02EB420603EB46052F798F427E
:10064000EAD10846FFF73EFF6109490704D00221BD
:10065000B0FBF1F0BDE8F0810121F9E70020F9E7F6
:10066000E817054000100540B029001430B50B4CC8
:1006700004EB8005EC6D1C280DD211290AD0084826
:1006800004400AB144F400640BB144F0010444EAAC
:100690000160E86530BD44F00100FAE70000054064
:1006A000FEF7FFE00A4B10B503EB8003986C521E77
:1006B000112908D0074C204040EA016040EA82003E
:1006C00040F4006001E040F00100986410BD0000BB
:1006D00000000540C2FFFFE02DE9F04799461546AE
:1006E00088468246FFF7F6FE0646681C1AD0B5FB20
:1006F000F6F44B4642462146304600F07FF8074666
:10070000641C4B4642462146304600F077F837B12C
:1007100018B1E91B401B814202D9611E15E008B1E6
:10072000214612E0B8FBF6F4B9FBF6F700254B467C
:1007300042462146304600F061F800B12546BC42F1
:1007400001D2641CF3E72DB129465046BDE8F047BD
:1007500000F004B80020BDE8F08700002DE9F0416A
:100760000C460546FFF7B6FE174F002633467A6C57
:10077000012122F0F85242EA0562144D60432A40FA
:10078000134D641EA84201D30EE05B1C490001FB1F
:1007900000FCAC45F9D3210441EA063141EA0321CA
:1007A000114341F0400106E00A49884208D242EA7A
:1007B000044141F0C00121F001017964BDE8F081FC
:1007C000FFF728FE0020F9E7000005403DCC00FFC0
:1007D000005F4C0900D0121310B51368064C43EAB1
:1007E000006304EB01100362516841629168816209
:1007F000D068E06310BD000000000540484390420F
:1008000004D30349884201D8984200D90020704798
:1008100000CB280C00EB810000F500500121914035
:1008200002680BB10A4300E08A430260704700008F
:10083000C00100EB81000149425070470060084050
:100840002DE9F05F07463F480E46DFF8FCB050F850
:1008500027009A4600EB46143A485BF82710083800
:10086000904650F827004FF0010900EB8615F0077D
:1008700000D0102000EB560209FA02F0D1F8B8219E
:100880001042F4D120212046FFF7F8FC5BF8272026
:1008900073084FF4E07101EB83015358C3F38103F4
:1008A000012B47D05158C1F38141012942D0C4F8EE
:1008B000009062686AF31E426260616841F4004120
:1008C0006160616841F08001616008F580516FF3FB
:1008D0000B01C4E9028108F500516FF30B0121619E
:1008E00008F540516FF30B01616108F580416FF32A
:1008F0000B01A161E96821F04001E960E96821F09C
:100900008001E9600F4951F8271001EB4611A960F9
:10091000A5F830A0F10700D010215BF8270001EB0B
:10092000560209FA02F1D0F8B0211143C0F8B01113
:10093000BDE8F09FC4F800902A6869F39F722A60AE
:10094000B7E70000A02900149029001400E0104629
:100950000268D307FBD00160704700002DE9FC5FFF
:100960000546454850F82540D4F84801D4F844617C
:1009700006407FD0C4F84461F00707D0D4F8AC013A
:10098000D4F8BC0110B1284601F00AFBF0034FF087
:1009900000094FD5D4F87801D4F87C1108405FEAFB
:1009A0000008C4F8780145D000274FF0010A4FF441
:1009B000007B38E00AFA07F010EA080F31D0790618
:1009C000D4F8B821090E02422BD12C4A322303EB72
:1009D000811352F82520D25A1ABB39B1284B05EBA6
:1009E000450203EBC202526962B11AE0254849464A
:1009F00040F82590D4F87C0120F00100C4F87C0177
:100A0000214808E0214B43F82590D4F87C2182430B
:100A1000C4F87C211E485B4600EB45222846FFF7C0
:100A20000FFF7F1CFFB20DB1082000E00C20B7EBD8
:100A3000500FBFD3300601D501F0A4FE700619D5C2
:100A4000284600F087FB1349022048554026002322
:100A5000CDE900694C461A461946284600F0AEF822
:100A60008023CDE9006400221146284600E001E021
:100A700000F0A4F8BDE8FC9F902900149829001408
:100A800080420010F0200010402100101C210010B6
:100A900040290010302100102DE9F0410D461E467E
:100AA000174604462021FFF7E9FB0120206060681B
:100AB00067F31E406060606866F3CF306060606816
:100AC00040F080006060A56005F58055280B0003AC
:100AD000E060BDE8F08100000048704780400010F1
:100AE00070470000014800F039BC00000000001011
:100AF000014800F05FBC00000000001070B52949FB
:100B0000294E4FF0000509780B06A6F10C010A5C8E
:100B10002BD5264C32232AB1083646F8205080B116
:100B20008E1C10E046F8205010B11F490A3901E030
:100B30001D49891F54F82000097803EB81114552A3
:100B400070BD194EB61FB25C03EB821254F8203010
:100B50009D52174A52F82020D2F87C31095C0120BE
:100B600088400343C2F87C3170BD04461AB124B1F9
:100B70000D480A3803E0012102E00B48801F815C28
:100B800062B1094E103656F824300A4800EB442270
:100B90002046FFF755FE46F8245070BD56F8243025
:100BA0000548F3E7282100100421001098290014BB
:100BB0009029001440250010402100102DE9F84F25
:100BC00081469B4690460E46180000D001203D49C4
:100BD00000EB460551F829004FF4E07101EB860166
:100BE0004718D7F800A0384951F82900402100EBF8
:100BF00085142046FFF742FB0A98C0F309012068DC
:100C000061F31A402060206840F4004020602068B2
:100C100040F0005020600120A0600021BBF1000FD7
:100C20000CD04FF440231FFA8AF003EA88420243B3
:100C300042F44004B8F1010F28D035E04FEA1A42DF
:100C40000C244FEA024204EA8803134343F0C00431
:100C5000B8F1010F0ED0E90700D0102101EB5501CA
:100C60008840184951F82910D1F87C211043C1F867
:100C70007C0119E004200091386069463046FFF796
:100C80002BFF0246E9B24FF400730AE04FF48020D4
:100C90000091386069463046FFF71EFF009B024610
:100CA000E9B24846FFF7CCFD3C6006B90025E9B241
:100CB000B9F1000F01D0054800E005488155012039
:100CC000BDE8F88F9029001498290014FA2000102C
:100CD000FE200010064A52F82000826A0A60C26AAA
:100CE0004A60C988002901D0002141867047000070
:100CF00098290014F8B5294A4FF0080C002552F83D
:100D00002040274A125C0DE001234FF47A670095DA
:100D1000009E761C0096BE42FAD31E00A3F101038A
:100D20009BB2F4D112B118B11E4E02E0012301E0D2
:100D30001D4EB35C0CEB8316A659F607E4D00C27C6
:100D400007EB8313E3581B06DED4194C1A4E04EB51
:100D500040270023154D174C06EB40260FE000BF3F
:100D60004FF0000C864672B154F82EE00EF806C023
:100D700054F820C00CF1010C44F820C05B1C8B42DD
:100D8000EED30020F8BD55F82EE00EF807C055F858
:100D900020C00CF1010C45F820C0EFE798290014A1
:100DA000F8200010FA200010FE200010042100108E
:100DB0004021001014210010402500102DE9F043BF
:100DC000224F8946224C395C224B21B153F8201026
:100DD00021B1002120E054F82010F9E70520BDE8FA
:100DE000F0833D5CE5B11C4E56F82050DFF86CC036
:100DF0000CEB402C15F80C5056F820C080460CF136
:100E0000010C46F828C053F82060761E43F8206095
:100E100009F80150491C89B29142E2D30020DEE773
:100E20000F4E56F82050DFF83CC00CEB402C15F864
:100E30000C5056F820C080460CF1010C46F828C032
:100E400054F82060761E44F82060E1E7F820001096
:100E5000F02000101C2100100C210010402900106F
:100E600004210010402100102DE9FF4F81B0984669
:100E70009146060001D03B4800E03B483B494FF01B
:100E8000010B895D475C3A4906EB460001EBC00562
:100E9000384850F826A0384850F82600F90700D006
:100EA000102101EB57020BFA02F1D0F8B8211142E0
:100EB000F4D1002418E0102C18D0A8F101008442CD
:100EC00022D00F2C20D0002302990AEB441004FBFF
:100ED00009114A460090FFF7DFFD1CB1504600990A
:100EE000FFF734FD641CA4B24445E4D30022B8F1FA
:100EF000100F0BD9A8F11000A8600298C5F8109047
:100F000000EB0910286004E00123DDE72A612A6074
:100F1000AA601848C5F81480103850F8260000EB75
:100F20008710C16821F04001C160C16821F08001D3
:100F3000C160C0F808A008FB09F101864286F807E5
:100F400000D0102000EB57010BFA01F00A4951F8CC
:100F50002610D1F8B0211043C1F8B00105B0BDE8AA
:100F6000F08F0000FA200010FE200010F820001082
:100F700080420010A82900149029001470B504467E
:100F80001348C088904200D802460023204600F053
:100F90005DF81048005D10B11CB10F4902E001215D
:100FA00001E00E49095C002568B10D4E56F8243069
:100FB0000C4800BF00EB44222046FFF741FC46F8F6
:100FC0002450002070BD084E56F824300748F1E741
:100FD00028210010F8200010FA200010FE20001038
:100FE00014210010402500100421001040210010A1
:100FF000F0B5002316E0D41A0F4D0C4414F8014C40
:101000002D5C9DB10D4D55F82070DFF834C000BF48
:101010000CEB4026BC5555F82040641C45F8204098
:101020005B1C9BB29342E6D30020F0BD054D55F802
:101030002070DFF814C0EBE7F82000101421001036
:10104000402500100421001040210010F8B5254B68
:101050004FF0080E002653F82050234B1B5C0DE088
:1010600001244FF47A6C0096009F7F1C009767451F
:10107000FAD32700A4F10104A4B2F4D113B118B13A
:101080001A4F02E0012401E0194FFC5C0EEB8417BB
:10109000EF59FF07E4D04FF00C0C0CEB84142C59E3
:1010A0002406DDD4002412E00D5DA3B1114E56F8E4
:1010B0002070DFF844C000BF0CEB402C07F80C5048
:1010C00056F820506D1C46F82050641CA4B294427F
:1010D000EAD30020F8BD094E56F82070DFF820C092
:1010E000EAE7000098290014F8200010FA20001008
:1010F000FE200010142100104025001004210010D3
:10110000402100100A48416A11F0010F0FD0016818
:1011100011F0010F03D1416A41F00101416205481C
:10112000017881F0010101700120FFF731B97047AA
:1011300000700840D820001008B1092000E0082005
:101140000121814040094FF0E02202EB8000C0F80D
:101150000011704730B53D4B53F8201001F5E07198
:101160000A6822F080120A604A6822F080124A60FF
:101170008A6822F080128A60CA6822F08012CA60EF
:10118000A1F5E07158B9D1F8D02122F08012C1F850
:10119000D021D1F8D42122F08012C1F8D42101F558
:1011A000A2714FF0FF344C6300228A630C608D6E95
:1011B0008D668D6F8D67A1F5A27100BFD1F8B0511A
:1011C000002DFBD1C1F8B441D1F8B441002CFBD1C2
:1011D00001F5A0710C6824F47F040C601C4C54F8D9
:1011E00020408C611B4C8C6053F82010C1F85421B6
:1011F00053F82010D1F8543143F08073C1F85431C2
:1012000015490A54002105E008B1144B00E0144BC5
:101210005A54491C10B10429F6D301E00629F6D32B
:10122000104941F82020104941F820200F4941F889
:1012300020200F4941F820200E4941F820200E4976
:1012400000EB400001EBC000426130BD902900146A
:1012500098290014C7010100F8200010FA2000109E
:10126000FE200010F0200010042100101C210010AE
:101270000C2100101421001080420010074A0029A0
:1012800052F82000D0F8401102D041F0010101E0F5
:1012900021F00101C0F840117047000090290014AE
:1012A00070B5284D0446285DA0BBC4F10100285C40
:1012B00038B90020FFF7ECF80020FFF791F9C007DC
:1012C000FAD084B10320FFF7ADF801231A4619467E
:1012D0006E20FFF7C1F80120FFF78EF81A48005D75
:1012E00001280DD00FE00120FFF79CF801231A46DA
:1012F00019466520FFF7B0F80120FFF77DF807E0F9
:101300001249122008601248016841F080710160A2
:10131000012028550F48022150F82420C2F840111E
:1013200050F82400D0F840219207FBD4C0F8A8114F
:1013300014B90949092008602046BDE87040FFF74C
:1013400009BF00003221001024210010806C0840E9
:101350008471004090290014A46100407CB50446CB
:101360002D210C30FEF768FF01251AE06078A842B5
:1013700004D1802361880222207906E06079A842A6
:101380000DD1E1880023207A022200B10220CDE9AC
:10139000001029463046FFF711FC002809D06D1CCB
:1013A000EDB2A67A0EB1042000E00620A842DDD8F6
:1013B00001207CBD2DE9F0470646817A3C4850F873
:1013C0002100D0F8AC210027002A1DD0394A3578F9
:1013D00001249388AB4217D153781278364DFE2BF7
:1013E00014D0FF2B10D1212A0ED100F5BE70026B54
:1013F000026345F82170016841F001010160B07A93
:10140000FFF77CFB86F83840BDE8F087A12AFBD1C6
:1014100000F5BE70026B026345F82170016841F06F
:1014200001010160717AB07A491ECBB22349DFF81D
:101430009090DFF890800C5C234A84B158F82040EB
:1014400002EB402C04F80C3058F820305B1C48F8B4
:101450002030B47A085D70B17CB11C490EE055F8BB
:1014600020C009EB40240CF8043055F820305B1CF8
:1014700045F82030EDE7012101E01549095C68B12C
:1014800058F8243002EB44222046FFF7D9F948F8F7
:101490002470B07ABDE8F047FFF730BB55F8243030
:1014A00009EB44222046FFF7CBF945F82470F0E71A
:1014B000902900142821001004210010F8200010A9
:1014C000402100101421001040250010FA200010C7
:1014D000FE200010F8B50446817A3A4D4079002686
:1014E0006854ADF8006004F10C0702E094F838008D
:1014F000E0BBA07A6B460F223946FFF75FFC052858
:10150000F4D0E068304988420AD1607E617A88422E
:1015100006D2207EC00603D1A07E08B110283CD997
:10152000A17A2A4A4FF4E070002901D0284E00E049
:10153000284E6B5C52F82110F65C4FEA560600EB21
:1015400086068E5946F0011601D0214F00E0214F4A
:10155000FB5C4FEA530300EB8303CE50A37A617820
:10156000E954A37A002B02D0194C01E01DE0194C7C
:1015700052F82320645C4FEA540400EB84041359AE
:1015800043F0011301D0124C00E0124C615C4FEAB1
:10159000510100EB8100135007E0ADF8006004F149
:1015A0001B0505E094F8380010B14FF00000F8BDBD
:1015B000A27EA07A6B462946FFF700FC0528F1D0F1
:1015C0000120F8BDF8200010555342439029001423
:1015D000FA200010FE2000102DE9F8430446807A1E
:1015E000354D6179354F29544FF4E076A07A08B132
:1015F000334A00E0334A295C515C490806EB81021A
:1016000057F82010895811F0011F08D0012101F06E
:10161000F7F894F838000028E8D0BDE8F883C0B2A5
:1016200061784FF000082954A07A08B1244A00E0FC
:10163000244A295C515C490806EB810257F82010C6
:10164000895811F0011F07D0012101F0D9F894F851
:1016500038000028E8D0E0E74646ADF8008004F105
:101660002B0703E094F838000028D6D1A07A6B4607
:101670000D223946FFF7EAFC0528F3D0A47A285D4D
:1016800010B11CB10E4902E0012101E00D49095CD5
:1016900060B10D4D55F824300C4800BF00EB4422DA
:1016A0002046FFF7CDF845F82460B6E7084D55F819
:1016B00024300848F2E70000F820001090290014B8
:1016C000FA200010FE200010142100104025001008
:1016D00004210010402100102DE9F05F0446807ABB
:1016E0009449095C04297AD1934D61792954A07AEF
:1016F00008B1924A00E0924A924F934E525C4FF0EA
:101700003209D2074FF0010B4FF000084FF4E07A96
:1017100003D071B178B1894A0EE008B1874A00E080
:10172000874A57F82000525C09EB8211405A90B961
:1017300087E0012101E0824A515C57F8200008222D
:1017400002EB81128258D2077BD00C2202EB81116E
:101750004058000675D42046FFF7BCFEF0B3207E4B
:10176000000602D5A07A617829542046FEF71CFEB7
:101770000246A07A61792954A07A41B1DFF8CCC140
:1017800043464CF8208090B1DFF8B0C111E0704BB7
:10179000414643F8208008B1684B00E0684B57F899
:1017A000200093F800C009EB8C13C15213E0DFF85E
:1017B00090C157F820701CF801C009EB8C117B52C6
:1017C00056F82010D1F87C312F5C0BFA07F043EA71
:1017D0000003C1F87C31207E000601E031E0A7E083
:1017E00002D5A07A6178295482F0010084F837008C
:1017F0005848C4F82B002069C4F82F006069C4F869
:101800003300DAB9D0B1A07A002801D04B4900E00A
:101810004B492A5C56F82000895C4FEA51030AEBD9
:101820008303C35843F0011301D0444F00E0444FF9
:10183000BA5C4FEA52020AEB820143502046FFF79E
:10184000CBFE94F83800002872D0A07A6179295430
:10185000A27A002A01D0394800E0394856F82220FF
:10186000405C4FEA50030AEB83035046D35823F001
:10187000011301D0314F00E0314F795C4FEA510143
:1018800000EB81015350A17A002901D02B4B00E0DD
:101890002B4B6A5C56F821109B5C4FEA530300EB1C
:1018A0008303CB5843F0401301D0244F00E0244F72
:1018B000BA5C4FEA520200EB82028B50A27A617846
:1018C000A954A27A002A01D01C4B00E01C4B56F808
:1018D00022205B5C4FEA530300EB8303D35823F0D1
:1018E000011301D0154F00E0154F795C4FEA51010B
:1018F00000EB81015350A17A002901D00F4B00E089
:101900000F4B6A5C56F821109B5C4FEA530300EBC7
:101910008303CB5843F0401301D0084D00E0084D3D
:10192000AA5C4FEA52020AEB82000B5084F838801E
:10193000BDE8F09F30210010F8200010FA200010C0
:10194000FE20001098290014902900140C2100108A
:1019500004210010555342534318102B07D811800F
:101960000904090C07D0064901EB402070471028F4
:1019700003D30020108003487047C0F11001EEE748
:10198000D8000010D81E00102DE9F0410546C08B8C
:10199000010A044661F3070460F30F24242C01D2EA
:1019A000264600E02426287F4FF00007800701D15B
:1019B000687F58B11D48817821F00F01491D817061
:1019C0002421017347730020BDE8F081A87A002329
:1019D00032461749FFF73AFBA01B81B2A87A0022D2
:1019E000FFF788F9AC7A1348005D10B11CB11249B9
:1019F00002E0012101E01149095C88B1DFF8408073
:101A000058F824300F4800BF00EB44222046FEF770
:101A100017FF48F824706869801B68610120D3E7CC
:101A2000DFF8248058F824300848EDE7BF000010A4
:101A3000A6280014F8200010FA200010FE20001044
:101A40001421001040250010042100104021001036
:101A50002DE9F0410746807ADFF834814D4C4E4A3B
:101A600018F800304D4DDFF838C10021EBB355F8C0
:101A700020300CEB4026995555F82010491C45F8AC
:101A80002010B87A002118F800307BB355F82030C8
:101A90000CEB4026995555F82010491C45F82010AC
:101AA000B87A002118F80030BBB355F820300CEBA1
:101AB0004026995555F82010491C45F82010B87A51
:101AC000002118F800304BB355F820300CEB4026BD
:101AD000995555F82010491C45F82010BE7A18F881
:101AE000060090B396B32F4934E000E00AE054F8C2
:101AF000203002EB4026995554F82010491C44F838
:101B00002010BEE754F8203002EB4026995554F8D7
:101B10002010491C44F82010C2E700E00AE054F805
:101B2000203002EB4026995554F82010491C44F807
:101B30002010C4E754F8203002EB4026995554F8A1
:101B40002010491C44F82010C8E700E001E0012102
:101B500001E01549095C4FF0000870B155F82630D6
:101B60000CEB46223046FEF76BFE45F8268078697E
:101B7000001F78610120BDE8F08154F8263002EBA7
:101B800046223046FEF75CFE44F82680EFE7000070
:101B9000F820001004210010402100101421001032
:101BA00040250010FA200010FE2000102DE9FC4115
:101BB00000F11D04E0782178A27800EB01606178E3
:101BC000090401EB02210844A17962791D3C01EB73
:101BD00002218DB2002110280BD32B48827822F0ED
:101BE0000F02521D82702122027341730020BDE852
:101BF000FC8101AA2946FFF7AFFEBDF8043001467B
:101C000023B1AB4204D2E81A80B202E0284600E0D9
:101C100000200090A07A4FF40072FFF725F9A07A17
:101C20001A491B4A095C52F8202008B1194B00E000
:101C3000194B5B5CDB0703D071B178B1154B0EE03B
:101C400008B1144E00E0144E735C322606EB831389
:101C5000D35A002BE9D00FE0012301E00E4B5B5C6F
:101C6000082606EB83169659F607DED00C2707EBFD
:101C70008313D3581B06D8D46069694200EB412016
:101C800060610120B3E70000BF000010F8200010E1
:101C900098290014FA200010FE2000102DE9FC41C4
:101CA00005460F2000904FF400700190A87A0023A1
:101CB00004226946FFF79CF9A87A0023042201A9AF
:101CC000FFF796F9AC7A1148005D10B11CB11049CC
:101CD00002E0012101E00F49095C002688B10E4FA6
:101CE00057F824300D4800BF00EB44222046FEF791
:101CF000A7FD47F824606869083868610120BDE8DD
:101D0000FC81074F57F824300648EDE7F820001013
:101D1000FA200010FE2000101421001040250010B1
:101D200004210010402100102DE9F041C47F054638
:101D3000122C01D2264600E01226A87A0023324651
:101D40001649FFF783F9A01B81B2A87A0022FEF79B
:101D5000D1FFAC7A1248005D10B11CB1114902E00C
:101D6000012101E01049095C4FF0000888B10F4FD4
:101D700057F824300E4800BF00EB44222046FEF7FF
:101D80005FFD47F824806869801B68610120BDE819
:101D9000F081084F57F824300748EDE7BF000010E6
:101DA000F8200010FA200010FE200010142100106E
:101DB00040250010042100104021001070B5244C73
:101DC000C27E0025A17821F00F01491D1E2A3AD0BC
:101DD0000BDC122A14D003DCA2B3032A0DD112E0CB
:101DE0001A2A24D01D2A08D113E0252A0ED0282A29
:101DF00019D02A2A15D02F2A25D0A17020200DE035
:101E0000FFF7C2FD15E0FFF78FFF12E0FFF746FF77
:101E10000FE0027F520716D4A1702420207365734F
:101E200013E0002100E00121FFF7C0FE01E0FFF711
:101E30000FFE50B1A07820F00F00A07025736573DD
:101E4000012070BDFFE74561F4E70020F9E70000DD
:101E5000BF00001010B56920FEF7CAFB01494861B8
:101E600010BD0000D820001070B50C480C4901606E
:101E700000F0E4FC00F01AF80A490B4D002000BF06
:101E800001EB800411F820206378D20102EB830279
:101E900064885451401C1128F2D370BD08ED00E055
:101EA000000000144C2900140060084070B5FEF7D3
:101EB000C5FA0023012206210420FEF7D7FB324A8F
:101EC000324C134621460620FEF706FC0023012271
:101ED00009210420FEF7CAFB2D4A2146134606209D
:101EE000FEF7FAFB2B4D002405EB8400C3788278C3
:101EF000417815F82400FEF7B9FB641C162CF3D3C7
:101F00002548416821F00C014160416841F003011E
:101F1000416020490020214D583100BF01EB800471
:101F200011F820206378D20102EB830264885451B7
:101F3000401C0628F2D3052209210420FEF7B2FB3B
:101F40000023012210210520FEF790FB0222092127
:101F50001046FEF7A7FB0F4A002170320620FEF75D
:101F60003BFC042207210020FEF79CFB02220C21EF
:101F70000320FEF797FBBDE8704001230F211A46AE
:101F80000320FEF773BB000000E1F505001BB7005E
:101F900000CB280CCC28001400300440006008401E
:101FA0002DE9FE4FDFF89C910546674A59F8250058
:101FB00005EB450102EBC106D0F8BC71C0F8BC715D
:101FC000002F7DD000244FF4E07A4FF00108DFF8B5
:101FD0007CB1ACE008FA04F0384263D059F825101F
:101FE0000AEB84000858C0F38100012825D05BF873
:101FF00025100C2000EBC4100858C0F30E4230200E
:1020000000EBC41001900B5A9A1A0A52706990B3EF
:10201000B16889B35BF825200198105A029000201E
:102020000090308A8BB282B228463168FEF71CFFDE
:102030005BF82520DDE9010127E05BF82520302051
:1020400000EBC410105A00905BF825200C2101EB26
:10205000C4115158C1F30E41401A00906946204600
:10206000FEF73AFD02466006010E4FF40073284663
:10207000FEF7E6FB12E002E0FFE7002070615BF88C
:1020800025203220414600EBC4101152A4B35BF866
:1020900025100198085A2E4941F8250000212046B4
:1020A000FEF71EFD04F1100108FA01F038423CD0A1
:1020B00059F825000AEB84014058C0F3814000E044
:1020C0003DE001281ED0B06848B35BF825203021E0
:1020D00001EBC4110291525A0021CDE9001283B2E2
:1020E000308A316882B22846FEF7BEFE5BF82500D2
:1020F000DDE90112815214E0FFE75BF82500008E54
:102100001449C9E769462046FEF7E6FC024608EB9B
:102110004400C1B22846009BFEF792FB01E000207C
:10212000706101212046FEF7DBFC641CE4B20DB1B6
:10213000082000E00C20B4EB500FFFF44BAFBDE8DB
:10214000FE8F00009029001480420010982900148E
:102150001C210010F02000100448017800780128AC
:1021600002D10020FEF7FABB7047000024210010C6
:10217000034841784078012801D1FEF7EFBB704752
:1021800024210010F0B4404B404C1A461978557881
:1021900011F01F0651883E4A05D0022E71D111F070
:1021A000FF0F0BD02EE0C9B201296AD1032D03D055
:1021B0000021384B997025E00121FAE7197911F0D7
:1021C0000F015ED021544FF4E073032D03D000289B
:1021D0002DD0314D2CE0002801D02F4D00E02F4DA7
:1021E0006D5C4FEA550503EB850652F82050AE5959
:1021F00046F0011640D141E0795C4FEA510103EB12
:1022000081016E504FF00001215452F8201001F569
:10221000BE710A6B0A63224B4FF0000243F8202084
:102220000A6842F001020A60F0BCFEF767BC1B4D71
:102230006D5C4FEA550503EB850652F82050AE5908
:1022400026F0011601D0144F00E0144F795C4FEADC
:10225000510103EB81016E5001D00F4D00E00F4D95
:10226000215C6D5C4FEA550503EB850652F8205062
:10227000AE5946F0401601D0074FBDE7074FBBE708
:10228000FFE7F0BC7047000028210010F820001084
:102290009029001434210010FA200010FE200010B4
:1022A000042100102DE9F0410446294850F824008B
:1022B00000F5BE70016B0163264D002745F82470C0
:1022C000016841F0010101602348264EA4460178CF
:1022D0002248035D2248002B00EB4422224800EBF9
:1022E00044200DD056F82CC00CF8001056F82410DD
:1022F00001F1010146F824100DD14FF001010FE06A
:1023000055F82CC00CF8021055F8241001F1010109
:1023100045F82410F0E70CB1144900E01449C95CF9
:1023200063B156F8243002462046FEF789FA20466B
:1023300046F82070BDE8F041FEF7E0BB204655F8B6
:102340002030FEF77DFA204645F82070F2E70000C5
:10235000902900140421001034210010F8200010EE
:10236000402100101421001040250010FA20001018
:10237000FE200010F8B5044622486B4602794188D9
:102380002046FEF713F8020029D01F4E56F824000D
:1023900000F5BE70016B01631C4F002547F8245007
:1023A000016841F00101016020460099FEF7E6FD59
:1023B000174B184932201A5D2AB1174F47F824509D
:1023C00074B1164F0DE047F824500CB1134A00E0E9
:1023D000134A51F82410127800EB82100D52F8BD08
:1023E0000F4F51F82410BA5C00EB82100D5256F8D2
:1023F0002400D0F87C111B5D01229A401143C0F8E3
:102400007C11F8BD2821001090290014042100102F
:10241000F8200010982900140C210010FA20001058
:10242000FE2000102DE9F0414B4B044600201D78A2
:102430004A494B4A802D08D0822D6ED1187900F080
:102440000F00105554B1474B09E0474B5D7805B17B
:1024500001209B7893B140F002000FE0434B185CE1
:102460004FF4E073400803EB800351F82400C05898
:1024700010F0011000D001200023135551F8241052
:1024800001F5BE710B6B0B63394D4FF0000845F839
:1024900024800B6843F001030B6012F804C0354A36
:1024A000354E02EB4427354ABCF1000F02EB4422C3
:1024B000234617D056F82330985456F82410234654
:1024C00001F1010146F8231019464FEA102014D1FA
:1024D00055F82130D85555F8210000F1010045F894
:1024E000210013E055F82330D85555F82410234621
:1024F00001F1010145F82310E6E756F82130985420
:1025000056F8210000F1010046F8210002D14FF0F9
:10251000010106E011B1134801E01BE0134810F877
:102520000C10BCF1000F20460BD056F82030FEF7FF
:1025300087F9214646F82180BDE8F0410846FEF7BC
:10254000DDBA55F820303A46FEF77AF9214645F8CB
:102550002180F1E7BDE8F0812821001090290014C6
:10256000F8200010FA20001034210010FE20001086
:1025700004210010402100101421001040250010FB
:1025800070B504463649FEF7A5FBFEF7B1FA354DA6
:1025900055F82400D0F8AC01002630B33049087853
:1025A00049780A292CD2DFE801F0050D2B0D2B14F8
:1025B000192B2127802801D0822821D12046FFF71E
:1025C00031FF1DE008B102281AD12046FFF7DAFDDD
:1025D00016E050B9204600F04FF811E0802801D0F5
:1025E00081280DD12046FFF7C5FE09E0802807D1DC
:1025F0002046FFF757FE03E010B9204600F094F89C
:1026000055F82400D0F8AC11002927D000F5BE7091
:10261000016B0163144941F82460016841F0010134
:10262000016012494FF4E070002C01D0104A00E024
:10263000104A095D525C4FEA520200EB820355F8E2
:102640002420D35843F0011301D0094C00E0094C79
:10265000615C4FEA510100EB8100135070BD000036
:10266000282100109029001404210010F8200010E7
:10267000FA200010FE2000102DE9F0410446224807
:10268000224E807800F07F0556F8240000F5BE70D9
:10269000016B01631E4A002142F82410016841F0D9
:1026A000010101602046FEF729FA1A481A49082359
:1026B000005D51F824204FF00C0C10B11CB1174FE5
:1026C00002E0012101E0164F395C03EB8117D75975
:1026D000FF07F2D00CEB811151580906EDD456F8E2
:1026E00024106806C1F8540156F82400D0F854119B
:1026F00041F08071C0F854110DB1032000E00220B8
:1027000008490855BDE8F0812821001090290014DF
:1027100004210010F820001098290014FA2000105D
:10272000FE2000103021001070B50446104881785A
:1027300001291BD80F4850F8240000F5BE70026B29
:1027400002630D4B002243F82420026842F001028C
:1027500002600A4D20462970FEF7D0F908492A7810
:1027600004200855BDE87040FEF7BCB970BD0000FC
:102770002821001090290014042100103421001099
:10278000302100107047000070B5044606480D4621
:1027900001552046FEF784FD2946204600F008F842
:1027A00002490120087070BD24210010262100106C
:1027B0001CB501291AD104460D48002101550D48C8
:1027C0000B460A4601700C4801700C48017040200D
:1027D000CDE900012046FEF7F1F92046FEF7ACFCFA
:1027E0002046BDE81C400121FEF748BD1CBD00008D
:1027F0003021001034210010362100103521001046
:1028000070B504460948005D00280DD0084E002030
:10281000355D3055074850F82400D0F8AC0110B1B0
:102820002046FFF7ADFE355570BD00003021001089
:10283000F820001090290014FEE700000CB50C49A8
:102840000A480A1D0968009111680191094A009916
:10285000914209D10199A1F18852113A04D101683C
:1028600041F47001009101600CBD000088ED00E0B2
:1028700040EF00E021001110FDF75AFD064C012148
:10288000A07AFFF781FF0448FEF726FFA07A012116
:10289000FFF7B6FFF7E70000000000104FF04070B0
:1028A000E1EE100A7047008000021F0000004E5841
:1028B00050000000000044617461666C6173682020
:1028C0004469736B0000302E3030000000010100BD
:1028D000090901000A0901000107010102090100BB
:1028E000060901000C0901010803010007030100AA
:1028F0000D0901000E0901000F0901001009010076
:10290000110901001209010013090100141101004D
:10291000191101001A1101001B1101000B0E010019
:10292000030F01010303F3000304F3000305F300A5
:102930000306F3000307F3000308F3001D60000023
:10294000FA7F16060000000000000000010FF300EF
:102950000000F2000110F7000001B6000113F000C2
:102960000112B3000114B3000111F3000200B7001B
:10297000020B1800020C18000300F2000600F4001D
:102980000702F2000602F3000701F2000601F3005D
:10299000006000400070004000300010003800105F
:1029A000003A0010803B0010803C0010803E001078
:1029B000000005000A00200024000900400040003B
:1029C00005006000A6000400E829001400000010C3
:1029D0003821000050010014F02C001438210010A0
:1029E000D8330000AC010014112303401A02040282
:1029F0003201227B1B107F041A870413120132025A
:102A00001640C91F4520140101022C0109020911B9
:102A10001D8032090462140806501C0705836A2DC4
:102A200001070502071110080403090408034E12E8
:102A30005812501C38034C061243125512531242BE
:102A4000126C126912621220124D12611A73021A6C
:102A500020161274126F1A721012671A65101A4437
:102A6000061A6D126270D20A29CB100CEB3C904D05
:102A700053444F53352E301A028713011012101A87
:102A8000F808B9E9102329741902274C5043313151
:102A9000787820555342464154313220202033C9A2
:102AA0008ED1BCF07B8ED9B816208EC0FCBD104BE9
:102AB0007C384E247D248BC199E83C01721C83EB49
:102AC0003A66A11C7C26663B07268A57FC75068061
:102AD000CA0288560280C31073EB33C98A46109825
:102AE000F7661603461C13561E03460E13D18B764B
:102AF00011608946FC8956FEB8202013F7E68B5EEC
:102B00000B03C348F7F30146FC114EFE61BF13E807
:102B1000E61032723926382D741760B10BBEA17DD4
:102B2000F3A66174324E740983C7203BFB72E6EB57
:102B3000DCA0FB7DB47D8BF0AC9840740C48741322
:102B4000B40EBB07181BCD10EBEFA0FD7DEBE6A08C
:102B5000FC7DEBE1CD16CD19268B551A52B001BB89
:102B600051123B202572E85B8A5624BE0B7C8BFCFD
:102B7000C746F03D7DC746F4297D8CD9894EF28940
:102B80004EF6C606967DCBEA03180A200FB6C86635
:102B90008B46F866AF180A668BD066C1EA10EB5E0A
:102BA0001418434A4A8A460D32E4F7E20346FC13FE
:102BB00056FEEB4A525006536A016A10918B461832
:102BC000969233D2F7F691F7F64287CAF7761A8AC9
:102BD000F28AE8C0CC020ACCB80102807E020E75EF
:102BE00004B4428BF47D1814CD136161720B4075EF
:102BF0000142035E0B497506F8C3419C1460666A86
:102C00003809EBB04E544C4452200118230D0A529F
:102C1000656D6F7665206469736B73206F72206FCA
:102C200074686572206D656469612EFF0D0A441831
:102C30001F206572726F720D1812507265737320C7
:102C4000616E79206B657920746F201077746172E2
:102C5000740D0A3808ACCBD855AAF8FF0102FF0F53
:102C600001F9000D144C50435553426C6962202009
:102C700028400D524541444D4520205458542112BE
:102C80002123BB3216DC83BB320202FF5D01C41E6E
:102C900054686973200318166120555342204D650E
:102CA0006D6F72792044657669636520640E000B50
:102CB000FF6E7374726174696F6E2E01FF01FF0104
:102CC000FF01FF01FF01FF01FF01FF01FF01FF0104
:102CD000FF01FF01FF01FF01FF01FF01FF01FF01F4
:102CE000FF01FF01FF01FF01FF01FF01FF01500094
:0400000514000115CD
:00000001FF
