:020000041400E6
:1000000010350010B5010014BD010014BF0100142B
:10001000C1010014C3010014C50100145A5A5A5AF0
:10002000CF010014CF010014CF010014C701001448
:10003000C9010014CF010014CB010014CD0100143C
:10004000D1010014D1010014D1010014CF0100141A
:10005000D1010014D1010014D1010014D101001408
:10006000951D0014AD1D0014D1010014D101001420
:10007000D1010014D1010014D1010014D1010014E8
:10008000D1010014D1010014D1010014D1010014D8
:10009000D1010014D1010014D1010014D1010014C8
:1000A000D1010014D1010014D1010014D1010014B8
:1000B000D1010014D1010014D1010014D1010014A8
:1000C00039180014D1010014D1010014D101001419
:1000D000D1010014D1010014D1010014D101001488
:1000E000D1010014D1010014D1010014D101001478
:1000F000CF010014D1010014D1010014D10100146A
:10010000CF010014D1010014CF010014D10100145B
:10011000D101001400F002F800F03CF80AA090E8C9
:10012000000C82448344AAF10107DA4501D100F0B2
:1001300031F8AFF2090EBAE80F0013F0010F18BF43
:10014000FB1A43F001031847B0240000D02400003C
:10015000103A24BF78C878C1FAD8520724BF30C8F3
:1001600030C144BF04680C607047000000230024C5
:1001700000250026103A28BF78C1FBD8520728BFB7
:1001800030C148BF0B6070471FB502F0B1F91FBD09
:1001900010B510BD00F05AF81146FFF7F5FF02F058
:1001A00089F900F078F803B4FFF7F2FF03BC02F01E
:1001B00061F900000A4880470A480047FEE7FEE769
:1001C000FEE7FEE7FEE7FEE7FEE7FEE7FEE7FEE707
:1001D000FEE7000004480549054A064B7047000049
:1001E000A51A00141501001410230010103500107A
:1001F00010330010103300104FF0000200B513460A
:1002000094469646203922BFA0E80C50A0E80C5036
:10021000B1F12001BFF4F7AF090728BFA0E80C50E7
:1002200048BF0CC05DF804EB890028BF40F8042BE0
:1002300008BF704748BF20F8022B11F0804F18BF4D
:1002400000F8012B7047704770477047754600F003
:1002500029F8AE4605006946534620F0070085465A
:1002600018B020B5FFF7B6FFBDE820404FF00006FC
:100270004FF000074FF000084FF0000B21F007018E
:10028000AC46ACE8C009ACE8C009ACE8C009ACE8D1
:10029000C0098D4670470446AFF300802046FFF743
:1002A00082FF000000487047B022001010B501F036
:1002B000EFFB44220621022000F03CFFD222052160
:1002C000022000F037FF44220721012000F032FF16
:1002D0000D4C012306220521204600F01DFF0A488F
:1002E0000121A03081710B460C22204600F014FF42
:1002F00001230B221946204600F00EFF024901207F
:1003000020310873C87210BD00400F40044A81F0CC
:10031000010118B1012800D1D172704711737047E3
:1003200020400F4010B50A0ACCB200210846012A2D
:1003300004D0022A05D0032A15D106E00B49122069
:1003400011E00A4912313F200DE0084A0C3A24B16D
:10035000012C04D0022C06D103E0116802E05168A0
:1003600000E091680878196010BD00000C000010D2
:10037000F0B5437B2E49C95C042927D1D0F812106F
:1003800021B32C4A4179D154407B08B12A4B00E07B
:100390002A4B2B4D32245B5C04EB831655F820303E
:1003A0009E5B002396B1274F274E4FF0010E8446E7
:1003B00071B156F82CC000BF1FFA8CFCBCF1000FC5
:1003C00009D089B356F8200080B2F0BD0020F0BDFE
:1003D00057F82CC0F0E729B11C4E46F8203078B110
:1003E000154E0EE01A4941F8203008B1124900E0DC
:1003F000124955F82000097804EB81114352E5E7D2
:100400000E4E715C04EB811155F820406352114986
:1004100051F82010D1F87C31105C0EFA00FE43EA4E
:100420000E03C1F87C31D1E7FFE757F82000CBE796
:10043000D0000010E0000010E2000010E600001004
:10044000E0250014D800001004010010F400001092
:10045000EC000010D82500147CB50446002044F8B8
:100460000E0F6060A0600E3C012522E06078A8427B
:1004700004D180236188022220790EE06079A842AD
:1004800004D10023E1880222207A06E0607AA842A3
:100490000DD161898023207B032200B10220CDE9A8
:1004A00000102946304601F00BF8002809D06D1CD9
:1004B000EDB2667B0EB1042000E00620A842D5D83C
:1004C00001207CBD704770472DE9F84F477BDFF86E
:1004D0000894044659F82700D0F8AC210021002ADE
:1004E0002ED0FE4E2378B2889A4229D1324696F811
:1004F000018092F800C0FA4BFA4AFB4DDFF8ECA3FA
:10050000B8F1200F6FD0B8F1210F1BD0B8F1220F36
:100510006AD0B8F1230F13D1BCF1210F10D100F52F
:10052000BE70026B026345F82710016841F00101BB
:100530000160607B00F064FFB1782046FFF7C3FFE5
:10054000BDE8F88FBCF1A10FFAD100F5BE70066BC3
:10055000066345F82710066846F001060660607BD2
:100560004FF0080B4FF00C081AF8007053F82030C9
:10057000894617B118B1DE4E02E0012101E0DD4EDF
:10058000F15D0BEB81169E59F607F2D008EB811155
:1005900059580906EDD4D4F81210D74EDFF85CC3D1
:1005A000002FCBB2074620D056F827700CEB40281E
:1005B00007F8083056F82030074603F1010346F8E3
:1005C000273000BFC1F307231DD155F8277002EB78
:1005D000402807F8083055F82030074603F101039A
:1005E00045F827301CE0CDE079E255F8277002EBA2
:1005F000402807F8083055F82030074603F101037A
:1006000045F82730DEE756F827700CEB402807F84E
:10061000083056F82030074603F1010346F827302A
:10062000C1F307430CD155F8277002EB402807F8B7
:10063000083055F8203003F1010345F820300BE075
:1006400056F827700CEB402807F8083056F8203091
:1006500003F1010346F820304FEA1161D0460BD177
:1006600055F8203002EB4027D95555F8201001F1FC
:10067000010145F820100AE056F820300CEB402725
:10068000D95556F8201001F1010146F82010607B81
:10069000A17D18F800308BB356F820300CEB4027C2
:1006A000D95556F8201001F1010146F82010607B61
:1006B000E17D18F8003073B356F820300CEB40277A
:1006C000D95556F8201001F1010146F82010607B41
:1006D000217E18F800305BB356F820300CEB402731
:1006E000D95556F8201001F1010146F82010677B1A
:1006F0001AF8070040B357B37D4929E0FFE755F8E2
:10070000203002EB4027D95555F8201001F10101A6
:1007100045F82010CBE7FFE755F8203002EB4027E3
:10072000D95555F8201001F1010145F82010CEE708
:1007300055F8203002EB4027D95555F8201001F12B
:10074000010145F82010D2E74FF0010101E06949AD
:10075000095C68B156F827300CEB4722384600F0A8
:10076000F1FC46F82790607BBDE8F84F00F048BEEA
:1007700055F8273002EB4722384600F0E3FC45F8F5
:100780002790F0E7BCF1210F7FF4DAAE00F5BE70E0
:10079000066B066345F82710066846F001060660FA
:1007A000607B9B461AF800C053F820604FF0320A75
:1007B00008B14F4900E04F4911F80C700AEB87115E
:1007C000715A0029F4D04E4B4E4F4F4E4F49BCF159
:1007D000000F84462AD051F82CC007EB40281CF8A3
:1007E000089051F820C00CF1010C41F820C056F8D7
:1007F00020C08046ACF1010C46F828C0C446CDF8B4
:10080000009027D155F82CC002EB40281CF8089026
:1008100055F820C080460CF1010C45F828C053F86B
:1008200020C0ACF1010C43F828C026E055F82CC0DC
:1008300002EB40281CF8089055F820C00CF1010C80
:1008400045F820C053F820C08046ACF1010C43F8B5
:1008500028C0D3E751F82CC007EB40281CF80890BB
:1008600051F820C080460CF1010C41F828C056F820
:1008700020C0ACF1010C46F828C0CE46C44613D1C6
:1008800055F82CC002EB40281CF8089055F820C001
:1008900080460CF1010C45F828C053F820C0ACF19B
:1008A000010C43F820C012E051F82CC007EB40289F
:1008B0001CF8089051F820C080460CF1010C41F85A
:1008C00028C056F820C0ACF1010C46F820C030D149
:1008D00055F820C01CE00000D8250014C800001006
:1008E000E025001440010010EC000010E0000010B2
:1008F000E2000010E6000010FC00001040050010AF
:10090000D80000104009001004010010F40000108D
:1009100002EB40281CF8088055F820C00CF1010CAF
:1009200045F820C053F820C0ACF1010C43F820C0BA
:1009300011E051F820C007EB40281CF8088051F85E
:1009400020C00CF1010C41F820C056F820C0ACF1D9
:10095000010C46F820C04FEA086C4CEA094C4CEAFE
:100960000E20DDF800C0DFF8A49140EA0C00C4F8C6
:100970001200607B19F800C0BCF1000F4FD051F895
:1009800020C007EB40281CF8088051F820C00CF16B
:10099000010C41F820C056F820C0ACF1010C46F81B
:1009A00020C000BF84F81680607B19F800C0BCF13D
:1009B000000F47D051F820C007EB40281CF80880F2
:1009C00051F820C00CF1010C41F820C056F820C0AD
:1009D000ACF1010C46F820C084F81780607BCC464F
:1009E00019F80080B8F1000F3FD051F8202007EB34
:1009F0004023D25C51F820305B1C41F8203056F87F
:100A000020305B1E46F820302276607B1CF80030D8
:100A1000DBB3002241F82020C0B33D4946E055F841
:100A200020C002EB40281CF8088055F820C00CF1CB
:100A3000010C45F820C053F820C0ACF1010C43F87C
:100A400020C0AFE755F820C002EB40281CF8088012
:100A500055F820C00CF1010C45F820C053F820C017
:100A6000ACF1010C43F820C0B6E755F8206002EB6A
:100A70004022B25C55F82060761C45F8206053F89F
:100A80002060761E43F82060BEE700E00DE0002104
:100A900045F8201008B11E4A00E01E4A5BF820000D
:100AA00013780AEB8313C15212E01A49CB5C5BF84E
:100AB00020100AEB8313CA52174951F82010D1F8BD
:100AC0007C2119F80030012098400243C1F87C21B4
:100AD000607B00F095FC204600F085FC30E5BCF121
:100AE000210FFBD100F5BE70026B026345F82710A1
:100AF000016841F001010160607B00F081FC7088B9
:100B0000E0812046FFF7DEFC1AE50000E00000105F
:100B1000E2000010E6000010D82500142DE9F04F87
:100B20000246417B4848435C4FF0FF30042B74D1B0
:100B3000D2F81230002B70D0444C53796354517B5F
:100B400009B1434D00E0434D434F3226ED5C57F869
:100B500021C006EB85153CF805504FF00008002D2C
:100B60005BD0A3463D4C3E4D4FF0010E8C466BB31F
:100B700055F82CC0DFF8EC901FFA8CFCDFF8E8A0E9
:100B8000BCF1000F13D023B35AF82100DFF8DCC00A
:100B90000CEB412C10F80C005AF821C00CF1010CA0
:100BA0004AF821C055F821305B1E45F82130517BB1
:100BB0001BF801300BB355F821402404240C2CD130
:100BC000F3B14AF8218051B3214C29E054F82CC0EC
:100BD000D0E759F82100DFF898C00CEB412C10F851
:100BE0000C0059F821C00CF1010C49F821C054F84F
:100BF00021305B1E44F82130D9E754F82140DCE76E
:100C000049F8218009B1124A00E0124A57F8211030
:100C1000127806EB821221F80280BDE8F08F0D4CAD
:100C2000E35C57F8214006EB831324F80380114B53
:100C300053F82130D3F87C411BF801200EFA02F161
:100C40000C43C3F87C41E8E7D0000010E00000103E
:100C5000E2000010E6000010E0250014D8000010AB
:100C600004010010EC000010F40000104009001016
:100C700040010010D825001470B50446407B174B86
:100C80001B5C042B0FD1D4F8123063B1144D637880
:100C90002B54607B002300F073FD647B285D20B142
:100CA0002CB1104904E0022070BD012101E00E4981
:100CB000095C002568B10D4E56F824300C4800BF81
:100CC00000EB4422204600F03DFA46F82450002074
:100CD00070BD084E56F824300748F1E7D0000010E8
:100CE000E0000010E2000010E6000010FC00001020
:100CF00040050010EC0000104001001005490028DC
:100D0000486802D020F0200001E040F02000486058
:100D100070470000003004400248416C41F001017E
:100D200041647047000005401C2806D2034901EBCE
:100D30008000C16D21F00101C165704700000540D0
:100D4000054988698A6920F00200824200D08861E2
:100D500020F00100886170470000054010B50124B3
:100D600001B103240AB144F00404022B01D144F080
:100D70002004B0F5917F03D9044941F8304010BDFB
:100D8000034901EBC000C0F8004110BDE817054061
:100D900000100540034901EB0010016A21F0010138
:100DA00001627047000005401C2805D2054901EB8F
:100DB0008000C06DC10701D011207047C0F30460EE
:100DC000704700000000054010B5FFF7EDFFBDE8DB
:100DD000104000F001B80000024600201249112A1C
:100DE0000CD2DFE802F0090E0B0C0B0B0E100B12ED
:100DF0000B0B1416181A1C004FF4004070470B48D8
:100E00007047084670470A48704700F03DB8002117
:100E100006E0012104E0022102E0032100E00421B8
:100E2000104600F007B80000001BB70080F0FA027F
:100E300000389C1C10B50B46084600F017F8024617
:100E4000184600F009F804461046FFF7C5FF641C79
:100E5000B0FBF4F010BD0000034901EB8000806C92
:100E6000C0F383007047000000000540054901EB16
:100E70008000806CC10701D011207047C0F304606E
:100E80007047000000000540F8B5144D6C6CC4F3C9
:100E90000360FFF7A1FF12A109680091296CC9073F
:100EA00013D0C4F30742C4F30131C4F30125C4F3E2
:100EB000C013521CC4F38014491C1DF80550234371
:100EC00005D0B0FBF1F05043F8BD0020F8BD6B0039
:100ED000B2FBF3F2B0FBF1F05043F8BD0000054067
:100EE00001020408024901EB0010C06970470000CC
:100EF000000005402DE9F041B0F5917F03D9194973
:100F000051F8304004E0184901EBC001D1F800412C
:100F1000E10725D01C210022144B0DE033F81660A8
:100F2000864208D86D88854205D302EB420003EB68
:100F30004000017907E0521C02EB420603EB460534
:100F40002F798F42EAD10846FFF73EFF6109490732
:100F500004D00221B0FBF1F0BDE8F0810121F9E7F6
:100F60000020F9E7E817054000100540C0250014EF
:100F700030B50B4C04EB8005EC6D1C280DD211290B
:100F80000AD0084804400AB144F400640BB144F0AC
:100F9000010444EA0160E86530BD44F00100FAE76D
:100FA00000000540FEF7FFE00A4B10B503EB80039D
:100FB000986C521E112908D0074C204040EA01606D
:100FC00040EA820040F4006001E040F001009864D3
:100FD00010BD000000000540C2FFFFE02DE9F04712
:100FE0009946154688468246FFF7F6FE0646681C77
:100FF0001AD0B5FBF6F44B4642462146304600F087
:101000007FF80746641C4B4642462146304600F0B6
:1010100077F837B118B1E91B401B814202D9611E34
:1010200015E008B1214612E0B8FBF6F4B9FBF6F77B
:1010300000254B4642462146304600F061F800B19B
:101040002546BC4201D2641CF3E72DB12946504627
:10105000BDE8F04700F004B80020BDE8F0870000CC
:101060002DE9F0410C460546FFF7B6FE174F002666
:1010700033467A6C012122F0F85242EA0562144D9F
:1010800060432A40134D641EA84201D30EE05B1C4E
:10109000490001FB00FCAC45F9D3210441EA0631CB
:1010A00041EA0321114341F0400106E00A49884228
:1010B00008D242EA044141F0C00121F00101796403
:1010C000BDE8F081FFF728FE0020F9E700000540A9
:1010D0003DCC00FF005F4C0900D0121310B513681F
:1010E000064C43EA006304EB01100362516841625D
:1010F00091688162D068E06310BD00000000054087
:101100004843904204D30349884201D8984200D909
:101110000020704700CB280C00EB810000F5005048
:101120000121914002680BB10A4300E08A4302604A
:1011300070470000C00100EB810001494250704738
:10114000006008402DE9F05F07463F480E46DFF893
:10115000FCB050F827009A4600EB46143A485BF87A
:1011600027100838904650F827004FF0010900EB8F
:101170008615F00700D0102000EB560209FA02F0A5
:10118000D1F8B8211042F4D120212046FFF734F8DD
:101190005BF8272073084FF4E07101EB830153588B
:1011A000C3F38103012B47D05158C1F38141012979
:1011B00042D0C4F8009062686AF31E4262606168BF
:1011C00041F400416160616841F08001616008F5AF
:1011D00080516FF30B01C4E9028108F500516FF3F0
:1011E0000B01216108F540516FF30B01616108F5B6
:1011F00080416FF30B01A161E96821F04001E960D2
:10120000E96821F08001E9600F4951F8271001EBEE
:101210004611A960A5F830A0F10700D010215BF8B5
:10122000270001EB560209FA02F1D0F8B021114370
:10123000C0F8B011BDE8F09FC4F800902A6869F3C7
:101240009F722A60B7E70000E8250014D825001433
:1012500000E010460268D307FBD001607047000031
:101260002DE9FC5F0546454850F82540D4F8480173
:10127000D4F8446106407FD0C4F84461F00707D039
:10128000D4F8AC01D4F8BC0110B1284600F0A6FC9B
:10129000F0034FF000094FD5D4F87801D4F87C1151
:1012A00008405FEA0008C4F8780145D000274FF0F5
:1012B000010A4FF4007B38E00AFA07F010EA080F41
:1012C00031D07906D4F8B821090E02422BD12C4A2C
:1012D000322303EB811352F82520D25A1ABB39B1BD
:1012E000284B05EB450203EBC202526962B11AE0DA
:1012F0002548494640F82590D4F87C0120F00100AB
:10130000C4F87C01214808E0214B43F82590D4F82B
:101310007C218243C4F87C211E485B4600EB4522B9
:101320002846FFF70FFF7F1CFFB20DB1082000E039
:101330000C20B7EB500FBFD3300601D501F040F8B9
:10134000700619D5284600F09FFA13490220485527
:1013500040260023CDE900694C461A461946284626
:1013600000F0AEF88023CDE9006400221146284643
:1013700000E001E000F0A4F8BDE8FC9FD8250014CF
:10138000E025001480220010D80000104001001059
:101390000401001040090010D00000102DE9F041B8
:1013A0000D461E46174604462021FEF725FF012064
:1013B0002060606867F31E406060606866F3CF304D
:1013C0006060606840F080006060A56005F5805551
:1013D000280B0003E060BDE8F08100000048704782
:1013E00080200010704770470148FFF735B80000B3
:1013F000900000100148FFF767B80000900000104F
:1014000070B52949294E4FF0000509780B06A6F161
:101410000C010A5C2BD5264C32232AB1083646F83B
:10142000205080B18E1C10E046F8205010B11F49AA
:101430000A3901E01D49891F54F82000097803EB9F
:101440008111455270BD194EB61FB25C03EB82127A
:1014500054F820309D52174A52F82020D2F87C319F
:10146000095C012088400343C2F87C3170BD04460A
:101470001AB124B10D480A3803E0012102E00B48FB
:10148000801F815C62B1094E103656F824300A483C
:1014900000EB44222046FFF755FE46F8245070BD6D
:1014A00056F824300548F3E7C8000010EC0000109F
:1014B000E0250014D825001440050010400100105C
:1014C0002DE9F84F81469B4690460E46180000D005
:1014D00001203D4900EB460551F829004FF4E07129
:1014E00001EB86014718D7F800A0384951F82900C8
:1014F000402100EB85142046FEF77EFE0A98C0F3DB
:101500000901206861F31A402060206840F400401F
:101510002060206840F0005020600120A060002181
:10152000BBF1000F0CD04FF440231FFA8AF003EAFE
:101530008842024342F44004B8F1010F28D035E05C
:101540004FEA1A420C244FEA024204EA880313438A
:1015500043F0C004B8F1010F0ED0E90700D010210C
:1015600001EB55018840184951F82910D1F87C2128
:101570001043C1F87C0119E00420009138606946ED
:101580003046FFF72BFF0246E9B24FF400730AE042
:101590004FF480200091386069463046FFF71EFF07
:1015A000009B0246E9B24846FFF7CCFD3C6006B915
:1015B0000025E9B2B9F1000F01D0054800E0054867
:1015C00081550120BDE8F88FD8250014E0250014CE
:1015D000E2000010E6000010064A52F82000826A7D
:1015E0000A60C26A4A60C988002901D00021418688
:1015F00070470000E02500142DE9FF4F81B09846A8
:101600009146060001D03B4800E03B483B494FF083
:10161000010B895D475C3A4906EB460001EBC005CA
:10162000384850F826A0384850F82600F90700D06E
:10163000102101EB57020BFA02F1D0F8B821114248
:10164000F4D1002418E0102C18D0A8F10100844235
:1016500022D00F2C20D0002302990AEB441004FB67
:1016600009114A460090FFF799FE1CB150460099B7
:10167000FFF7EEFD641CA4B24445E4D30022B8F1A8
:10168000100F0BD9A8F11000A8600298C5F81090AF
:1016900000EB0910286004E00123DDE72A612A60DD
:1016A000AA601848C5F81480103850F8260000EBDE
:1016B0008710C16821F04001C160C16821F080013C
:1016C000C160C0F808A008FB09F101864286F8074E
:1016D00000D0102000EB57010BFA01F00A4951F835
:1016E0002610D1F8B0211043C1F8B00105B0BDE813
:1016F000F08F0000E2000010E6000010E000001093
:1017000080220010F0250014D825001470B504467E
:101710001348C088904200D802460023204600F0BB
:101720002FF81048005D10B11CB10F4902E00121F3
:1017300001E00E49095C002568B10D4E56F82430D1
:101740000C4800BF00EB44222046FFF7FBFC46F8A4
:101750002450002070BD084E56F824300748F1E7A9
:10176000C8000010E0000010E2000010E6000010C9
:10177000FC00001040050010EC00001040010010BB
:10178000F8B5254B4FF0080E002653F82050234B98
:101790001B5C0DE001244FF47A6C0096009F7F1CC7
:1017A00000976745FAD32700A4F10104A4B2F4D14D
:1017B00013B118B11A4F02E0012401E0194FFC5C8B
:1017C0000EEB8417EF59FF07E4D04FF00C0C0CEB35
:1017D00084142C592406DDD4002412E00D5DA3B13D
:1017E000114E56F82070DFF844C000BF0CEB402CBF
:1017F00007F80C5056F820506D1C46F82050641C19
:10180000A4B29442EAD30020F8BD094E56F82070E5
:10181000DFF820C0EAE70000E0250014E000001037
:10182000E2000010E6000010FC000010400500106F
:10183000EC000010400100100A48416A11F0010F4D
:101840000FD0016811F0010F03D1416A41F001018D
:1018500041620548017881F0010101700120FEF725
:1018600055BD704700700840AC00001008B1092059
:1018700000E008200121814040094FF0E02202EB06
:101880008000C0F80011704730B53D4B53F8201070
:1018900001F5E0710A6822F080120A604A6822F0BD
:1018A00080124A608A6822F080128A60CA6822F038
:1018B0008012CA60A1F5E07158B9D1F8D02122F0A8
:1018C0008012C1F8D021D1F8D42122F08012C1F8C1
:1018D000D42101F5A2714FF0FF344C6300228A63DA
:1018E0000C608D6E8D668D6F8D67A1F5A27100BF46
:1018F000D1F8B051002DFBD1C1F8B441D1F8B441B9
:10190000002CFBD101F5A0710C6824F47F040C605D
:101910001C4C54F820408C611B4C8C6053F82010F8
:10192000C1F8542153F82010D1F8543143F080739A
:10193000C1F8543115490A54002105E008B1144B8F
:1019400000E0144B5A54491C10B10429F6D301E0AD
:101950000629F6D3104941F82020104941F82020EB
:101960000F4941F820200F4941F820200E4941F845
:1019700020200E4900EB400001EBC000426130BD69
:10198000D8250014E0250014C7010100E000001074
:10199000E2000010E6000010D8000010EC0000107B
:1019A00004010010F4000010FC0000108022001060
:1019B000074A002952F82000D0F8401102D041F027
:1019C000010101E021F00101C0F840117047000061
:1019D000D825001470B5284D0446285DA0BBC4F17D
:1019E0000100285C38B90020FFF7D4F90020FFF788
:1019F00079FAC007FAD084B10320FFF795F90123E3
:101A00001A4619466E20FFF7A9F90120FFF776F96B
:101A10001A48005D01280DD00FE00120FFF784F97E
:101A200001231A4619466520FFF798F90120FFF7B0
:101A300065F907E01249122008601248016841F078
:101A400080710160012028550F48022150F82420A0
:101A5000C2F8401150F82400D0F840219207FBD47E
:101A6000C0F8A81114B90949092008602046BDE84A
:101A70007040FFF709BF00000C010010C400001007
:101A8000806C084084710040D8250014A461004097
:101A900010B56920FFF72EFA0149486110BD00001A
:101AA000AC00001070B50C480C49016000F0E4FC7B
:101AB00000F01AF80A490B4D002000BF01EB80042A
:101AC00011F820206378D20102EB8302648854511C
:101AD000401C1128F2D370BD08ED00E00000001496
:101AE0007C2500140060084070B5FFF729F9002339
:101AF000012206210420FFF73BFA324A324C1346FA
:101B000021460620FFF76AFA00230122092104205A
:101B1000FFF72EFA2D4A214613460620FFF75EFAFC
:101B20002B4D002405EB8400C3788278417815F8AA
:101B30002400FFF71DFA641C162CF3D325484168D6
:101B400021F00C014160416841F0030141602049EE
:101B50000020214D583100BF01EB800411F82020F6
:101B60006378D20102EB830264885451401C06283A
:101B7000F2D3052209210420FFF716FA00230122DF
:101B800010210520FFF7F4F9022209211046FFF782
:101B90000BFA0F4A002170320620FFF79FFA042249
:101BA00007210020FFF700FA02220C210320FFF793
:101BB000FBF9BDE8704001230F211A460320FFF70F
:101BC000D7B9000000E1F505001BB70000CB280CD9
:101BD000FC24001400300440006008402DE9FE4F52
:101BE000DFF89C910546674A59F8250005EB450149
:101BF00002EBC106D0F8BC71C0F8BC71002F7DD0DB
:101C000000244FF4E07A4FF00108DFF87CB1ACE03B
:101C100008FA04F0384263D059F825100AEB840022
:101C20000858C0F38100012825D05BF825100C204E
:101C300000EBC4100858C0F30E42302000EBC41073
:101C400001900B5A9A1A0A52706990B3B16889B31D
:101C50005BF825200198105A029000200090308AED
:101C60008BB282B228463168FFF7C6FC5BF82520AC
:101C7000DDE9010127E05BF82520302000EBC410EE
:101C8000105A00905BF825200C2101EBC41151582B
:101C9000C1F30E41401A009069462046FFF79EFBB3
:101CA00002466006010E4FF400732846FFF74AFA19
:101CB00012E002E0FFE7002070615BF8252032208F
:101CC000414600EBC4101152A4B35BF825100198F3
:101CD000085A2E4941F8250000212046FFF782FBD3
:101CE00004F1100108FA01F038423CD059F82500FF
:101CF0000AEB84014058C0F3814000E03DE0012838
:101D00001ED0B06848B35BF82520302101EBC41128
:101D10000291525A0021CDE9001283B2308A316813
:101D200082B22846FFF768FC5BF82500DDE9011266
:101D3000815214E0FFE75BF82500008E1449C9E7E3
:101D400069462046FFF74AFB024608EB4400C1B251
:101D50002846009BFFF7F6F901E0002070610121A1
:101D60002046FFF73FFB641CE4B20DB1082000E001
:101D70000C20B4EB500FFFF44BAFBDE8FE8F00001A
:101D8000D825001480220010E02500140401001062
:101D9000D8000010044801780078012802D1002002
:101DA000FFF75EBA70470000C40000100348417896
:101DB0004078012801D1FFF753BA7047C4000010E2
:101DC000F0B4404B404C1A461978557811F01F0674
:101DD00051883E4A05D0022E71D111F0FF0F0BD071
:101DE0002EE0C9B201296AD1032D03D00021384B5E
:101DF000997025E00121FAE7197911F00F015ED001
:101E000021544FF4E073032D03D000282DD0314D21
:101E10002CE0002801D02F4D00E02F4D6D5C4FEAE3
:101E2000550503EB850652F82050AE5946F00116D1
:101E300040D141E0795C4FEA510103EB81016E50E2
:101E40004FF00001215452F8201001F5BE710A6BC9
:101E50000A63224B4FF0000243F820200A6842F048
:101E600001020A60F0BCFFF7CBBA1B4D6D5C4FEA74
:101E7000550503EB850652F82050AE5926F00116A1
:101E800001D0144F00E0144F795C4FEA510103EB8D
:101E900081016E5001D00F4D00E00F4D215C6D5C53
:101EA0004FEA550503EB850652F82050AE5946F02F
:101EB000401601D0074FBDE7074FBBE7FFE7F0BC77
:101EC00070470000C8000010E0000010D825001482
:101ED000D2000010E2000010E6000010EC0000103C
:101EE0002DE9F0410446294850F8240000F5BE7061
:101EF000016B0163264D002745F82470016841F00D
:101F0000010101602348264EA44601782248035D62
:101F10002248002B00EB4422224800EB44200DD045
:101F200056F82CC00CF8001056F8241001F10101ED
:101F300046F824100DD14FF001010FE055F82CC0E8
:101F40000CF8021055F8241001F1010145F8241095
:101F5000F0E70CB1144900E01449C95C63B156F8CC
:101F6000243002462046FFF7EDF8204646F8207060
:101F7000BDE8F041FFF744BA204655F82030FFF79E
:101F8000E1F8204645F82070F2E70000D82500145B
:101F9000EC000010D2000010E00000104001001022
:101FA000FC00001040050010E2000010E6000010E8
:101FB000F8B5044622486B46027941882046FEF770
:101FC000B1F9020029D01F4E56F8240000F5BE706A
:101FD000016B01631C4F002547F82450016841F054
:101FE0000101016020460099FFF790FB174B18494B
:101FF00032201A5D2AB1174F47F8245074B1164F9A
:102000000DE047F824500CB1134A00E0134A51F890
:102010002410127800EB82100D52F8BD0F4F51F8CA
:102020002410BA5C00EB82100D5256F82400D0F850
:102030007C111B5D01229A401143C0F87C11F8BD50
:10204000C8000010D8250014EC000010E0000010BB
:10205000E0250014F4000010E2000010E60000107B
:102060002DE9F0414B4B044600201D784A494B4A6C
:10207000802D08D0822D6ED1187900F00F001055F8
:1020800054B1474B09E0474B5D7805B101209B787F
:1020900093B140F002000FE0434B185C4FF4E07343
:1020A000400803EB800351F82400C05810F00110E1
:1020B00000D001200023135551F8241001F5BE7102
:1020C0000B6B0B63394D4FF0000845F824800B680B
:1020D00043F001030B6012F804C0354A354E02EBA1
:1020E0004427354ABCF1000F02EB4422234617D0A7
:1020F00056F82330985456F82410234601F1010174
:1021000046F8231019464FEA102014D155F8213013
:10211000D85555F8210000F1010045F8210013E0E1
:1021200055F82330D85555F82410234601F1010104
:1021300045F82310E6E756F82130985456F8210068
:1021400000F1010046F8210002D14FF0010106E044
:1021500011B1134801E01BE0134810F80C10BCF15A
:10216000000F20460BD056F82030FEF7EBFF21463B
:1021700046F82180BDE8F0410846FFF741B955F81F
:1021800020303A46FEF7DEFF214645F82180F1E790
:10219000BDE8F081C8000010D8250014E000001050
:1021A000E2000010D2000010E6000010EC00001069
:1021B00040010010FC0000104005001070B50446FE
:1021C0003649FFF709FAFFF715F9354D55F82400A0
:1021D000D0F8AC01002630B33049087849780A2994
:1021E0002CD2DFE801F0050D2B0D2B14192B212724
:1021F000802801D0822821D12046FFF731FF1DE041
:1022000008B102281AD12046FFF7DAFD16E050B9CE
:10221000204600F04FF811E0802801D081280DD130
:102220002046FFF7C5FE09E0802807D12046FFF7CA
:1022300057FE03E010B9204600F094F855F824004A
:10224000D0F8AC11002927D000F5BE70016B0163F6
:10225000144941F82460016841F00101016012490C
:102260004FF4E070002C01D0104A00E0104A095DE4
:10227000525C4FEA520200EB820355F82420D358F7
:1022800043F0011301D0094C00E0094C615C4FEAB6
:10229000510100EB8100135070BD0000C800001018
:1022A000D8250014EC000010E0000010E20000103F
:1022B000E60000102DE9F04104462248224E8078C5
:1022C00000F07F0556F8240000F5BE70016B016335
:1022D0001E4A002142F82410016841F0010101600A
:1022E0002046FFF78DF81A481A490823005D51F877
:1022F00024204FF00C0C10B11CB1174F02E001214B
:1023000001E0164F395C03EB8117D759FF07F2D074
:102310000CEB811151580906EDD456F824106806CB
:10232000C1F8540156F82400D0F8541141F08071DE
:10233000C0F854110DB1032000E0022008490855EF
:10234000BDE8F081C8000010D8250014EC00001092
:10235000E0000010E0250014E2000010E60000108C
:10236000D000001070B504461048817801291BD8B0
:102370000F4850F8240000F5BE70026B02630D4B4D
:10238000002243F82420026842F0010202600A4D54
:1023900020462970FFF734F808492A7804200855A8
:1023A000BDE87040FFF720B870BD0000C800001005
:1023B000D8250014EC000010D2000010D00000104E
:1023C0007047000070B5044606480D46015520468A
:1023D000FFF700FB2946204600F008F802490120DB
:1023E000087070BDC4000010C60000101CB50129A3
:1023F0001AD104460D48002101550D480B460A46E6
:1024000001700C4801700C4801704020CDE90001BA
:102410002046FFF755F82046FFF728FA2046BDE88A
:102420001C400121FFF7C4BA1CBD0000D000001001
:10243000D2000010D4000010D300001070B5044684
:102440000948005D00280DD0084E0020355D30554C
:10245000074850F82400D0F8AC0110B12046FFF72F
:10246000ADFE355570BD0000D0000010E00000103A
:10247000D8250014FEE700000CB50C490A480A1DD7
:102480000968009111680191094A0099914209D1A6
:102490000199A1F18852113A04D1016841F4700107
:1024A000009101600CBD000088ED00E040EF00E00D
:1024B000210011101FB5FDF7F9FE0C4C0121607BC6
:1024C000FFF780FF0948FDF753FF48B10748FEF7C3
:1024D00025FB8DF80000012269460448FEF7CCFB7D
:1024E000607B0121FFF7AAFFECE7000090000010DD
:1024F0004FF04070E1EE100A70470000000101004B
:10250000090901000A09010001070101020901008E
:10251000060901000C09010108030100070301007D
:102520000D0901000E0901000F0901001009010049
:102530001109010012090100130901001411010021
:10254000191101001A1101001B1101000B0E0100ED
:10255000030F01010303F3000304F3000305F30079
:102560000306F3000307F3000308F3001D600000F7
:10257000FA7F16060000000000000000010FF300C3
:102580000000F2000110F7000001B6000113F00096
:102590000112B3000114B3000111F3000200B700EF
:1025A000020B1800020C18000300F2000600F400F1
:1025B0000702F2000602F3000701F2000601F30031
:1025C000000005000A00200024000900400040002F
:1025D00005006000A600040000600040007000409C
:1025E0000010001000180010001A0010801B0010CE
:1025F000801C0010801E001018260014000000101F
:1026000010010000500100142827001410010010D0
:10261000003400006C0100145D0000106100001027
:10262000690000101201100102000040C91F47207C
:1026300001000102000109023E00020100C032094E
:10264000040000010202010005240010010424021C
:10265000060524060001070581030800FF0904019F
:1026600000020A00000007050302100001070582AE
:1026700002100001000403090408034E0058005032
:102680000026034C00500043005500530042006CEC
:102690000069006200200043004400430020004421
:1026A0000065006D006F00000002100000031000C4
:1026B0000001080000000000000000000000000011
:1026C000000000000000000000000000000000000A
:1026D00000000000000000000000000000000000FA
:1026E00000000000000000000000000000000000EA
:1026F00000000000000000000000000000000000DA
:1027000000000000000000000000000000000000C9
:1027100000000000000000000000000000000000B9
:082720000000000000000000B1
:0400000514000115CD
:00000001FF
