:020000041400E6
:1000000010450010FD010014050200140702001441
:10001000090200140B0200140D0200145A5A5A5A15
:100020001702001417020014170200140F02001424
:100030001102001417020014130200141502001418
:1000400019020014190200141902001417020014F6
:1000500019020014190200141902001419020014E4
:1000600081280014992800141902001419020014A0
:1000700019020014190200141902001419020014C4
:1000800019020014190200141902001419020014B4
:1000900019020014190200141902001419020014A4
:1000A0001902001419020014190200141902001494
:1000B000352000141902001419020014190200144A
:1000C000DD1D001419020014190200141902001495
:1000D0001902001419020014190200141902001464
:1000E0001902001419020014190200141902001454
:1000F0001702001419020014190200141902001446
:100100001702001419020014170200141902001437
:100110001902001400F002F800F060F80AA090E85C
:10012000000C82448344AAF10107DA4501D100F0B2
:1001300055F8AFF2090EBAE80F0013F0010F18BF1F
:10014000FB1A43F00103184704300000243000007C
:100150000A444FF0000C10F8013B13F0070408BFED
:1001600010F8014B1D1108BF10F8015B641E05D08B
:1001700010F8016B641E01F8016BF9D113F0080F40
:100180001EBF10F8014BAD1C0C1B09D16D1E58BFD2
:1001900001F801CBFAD505E014F8016B01F8016B09
:1001A0006D1EF9D59142D6D370470000002300247C
:1001B00000250026103A28BF78C1FBD8520728BF77
:1001C00030C148BF0B6070471FB502F02BFF9DE8A0
:1001D000030000F08DF91FBD10B510BD00F016FA38
:1001E0001146FFF7F1FF02F0DBFE00F034FA03B432
:1001F000FFF7F2FF03BC02F0B3FE00000A4880479D
:100200000A480047FEE7FEE7FEE7FEE7FEE7FEE7F7
:10021000FEE7FEE7FEE7FEE7FEE7000004480549CB
:10022000054A064B704700005924001415010014BC
:100230001033001010450010104300101043001040
:1002400070B5064600F038F9056806F10B0020F09D
:100250000704B4429CBF002070BD2B466A68BAB147
:100260001068A04210D304F1080188423CBF5068D6
:10027000586007D35168101941601168091B01606B
:1002800058601460101D70BD13465268002AE7D1F3
:100290002146284600F018F90028DED170BD70B55F
:1002A0000446051F00F008F90068002C14BF4468DC
:1002B00070BD002C18BFAC423CBF20466468F8D328
:1002C00001680A18AA4218BF456003D12A6805468A
:1002D0001144016028684119A1421CBF6C6070BDC7
:1002E0006168696021680844286070BD53EA020CA7
:1002F00000F069802DE9F04B4FF00006002B1FBF86
:10030000B3FA83F503FA05F424FA05F65E4012BF4A
:100310001643B2FA82F502FA05F4C5F120051EBFB4
:1003200022FA05FC44EA0C04203556EA044C4FEA54
:10033000144418BF641C4FF000084FF000099042AD
:1003400071EB030C39D3002919BFB1FA81F701FA17
:1003500007F6B0FA80F700FA07F6C7F120071EBFCC
:1003600020FA07FC46EA0C062037B6FBF4FCA7EBA4
:100370000507103F07F01F0BCBF120060CFA0BFB13
:100380002CFA06F644BFB3460026202FA4BF5E46D3
:100390004FF0000B5BEA060C08BF4FF0010B19EBA6
:1003A0000B09ABFB027C48EB0608C01B06FB02CC2A
:1003B0000BFB03CC71EB0C01C1E70B460246414637
:1003C0004846BDE8F08B13B54FF000004FF0000138
:1003D000AFF30080BDE81C407047032A40F2308034
:1003E00010F0030C00F0158011F8013BBCF1020F76
:1003F000624498BF11F801CB00F8013B38BF11F8F7
:10040000013BA2F1040298BF00F801CB38BF00F80D
:10041000013B11F0030300F0A180083AC0F008800E
:1004200051F8043B083A51F804CBA0E80810F5E76E
:10043000121D5CBF51F8043B40F8043BAFF3008051
:10044000D20724BF11F8013B11F801CB48BF11F8C6
:10045000012B24BF00F8013B00F801CB48BF00F896
:10046000012B70474FF0000200B5134694469646A4
:10047000203922BFA0E80C50A0E80C50B1F12001B7
:10048000BFF4F7AF090728BFA0E80C5048BF0CC065
:100490005DF804EB890028BF40F8042B08BF7047C3
:1004A00048BF20F8022B11F0804F18BF00F8012B35
:1004B000704770477047704700487047B832001067
:1004C000704770477047704738B504460A460020A9
:1004D0006946AFF30080002808BF38BD0246009986
:1004E000204600F071F8012038BD012000F086B8E8
:1004F000F8B5AFF30080054600200C46102000BF81
:100500000646A819A0420DD9324669460020AFF32D
:100510000080070008BF00F071F80098A04218BFE3
:100520000546C419FFF7C8FF05600746F01D20F017
:1005300007004619284600F00AF8B44208BFF8BD83
:10054000A21B31463868BDE8F84000F03DB80021F4
:100550000160C0E9011070471020704710B5203AC3
:10056000C0F00B80B1E81850203AA0E81850B1E86C
:100570001850A0E81850BFF4F5AF5FEA027C24BF22
:10058000B1E81850A0E8185044BF18C918C0BDE819
:1005900010405FEA827C24BF51F8043B40F8043BE2
:1005A00008BF7047D20728BF31F8023B48BF11F897
:1005B000012B28BF20F8023B48BF00F8012B7047F1
:1005C00000487047B0320010034640688C4600284F
:1005D00018BF88423CBF03464068F8D318681844E7
:1005E000884207D00CF1030020F00700001D411ADB
:1005F000521A0146081D0A60FFF751BE10B500F0FF
:1006000035F8BDE8104000F02CB870477546FFF78C
:10061000D7FFAE4605006946534620F007008546E1
:1006200018B020B5FFF7FAFDBDE820404FF00006F6
:100630004FF000074FF000084FF0000B21F00701CA
:10064000AC46ACE8C009ACE8C009ACE8C009ACE80D
:10065000C0098D4670470446AFF300802046FFF77F
:10066000C6FD002801D002F07BBC704710B5012800
:1006700005D0002103A000F021F8012010BD09A140
:10068000F8E7000053494752544D454D3A204F7505
:1006900074206F662068656170206D656D6F72797A
:1006A000000000003A2048656170206D656D6F7232
:1006B0007920636F727275707465640070B5054659
:1006C0000C460A2000E06D1C00F011F835B12878C6
:1006D0000028F8D102E0641C00F009F814B1207879
:1006E0000028F8D1BDE870400A20AFF3008008B5BB
:1006F00069468DF800000320ABBE08BD3EB50D462F
:10070000044602F0A1F8002805D020786B1E6A4646
:10071000611C02F06EF83EBD10B5074C204600F09B
:10072000FDFE002204231146204600F01BFF034873
:10073000E103016010BD000000200A4080E100E0FC
:100740007CB5054600202873012416E0A878A04255
:1007500002D1A888802304E0A879A0420BD128897F
:1007600000230221CDE9000101222146304601F09B
:10077000C9F8002809D0641CE4B2AE7A0EB1042096
:1007800000E00620A042E1D801207CBD2DE9FF5FFA
:10079000817ADFF84492044659F82100D0F8AC2160
:1007A0000025002A51D08D4E37463278B7F804C064
:1007B00002F01F03012B02D0022B04D01AE0637851
:1007C0009C4542D116E0854FA3783F792BB143F089
:1007D00080039F4201D1012300E0002394F80680AA
:1007E000B8F1000F03D0474501D1012700E00027F1
:1007F0001F432AD0794F73787F88812B4FEA1728BF
:10080000774F71D023DC032B3DD004DC012B3AD091
:10081000022B1AD137E0042B35D00B2B15D1012A2E
:1008200013D100F5BE70026B026347F821500168D6
:1008300041F001010160A07A01F004F8B07800B144
:1008400001202073204600F0EFFFBDE8FF9F822BC0
:100850006AD0832B68D0842B66D0FF2BF5D1212A58
:1008600001D0222AF1D100F5BE70026B026347F875
:100870002150016841F001010160A07A04B0BDE897
:10088000F05F00F0DFBF222ADFD10CF0FF000095FF
:10089000CDE901509B460246C24643465946204692
:1008A00000F000FA0028D0D0F088ADF80C00FFF777
:1008B000C7FCA17A804659F8210000F5BE70026B92
:1008C000026347F82150016841F001010160A07AFC
:1008D000BDF80C20414601F0B1F8A67A4148805D90
:1008E00018B126B1404903E01EE0012101E03F4973
:1008F000095CA8B13E4F57F826303E4800EB46222F
:10090000304600F045FE47F8265003A9CDE900180F
:10091000534659462046029A00F0C4F9404657E033
:1009200057F826303448E9E7A22A8ED1F0889A4653
:100930000CF0FF0BADF80C00FFF782FC03A9CDE92A
:100940000010029043465A465146204600F0AAF94C
:1009500058B3A17A4E4659F8210000F5BE70026BDB
:10096000026347F82150016841F001010160A07A5B
:10097000BDF80C20029901F09BF9A07A19491F4B90
:1009800032220C5C2CB11E4F47F8205070B1164F2C
:100990000DE047F8205008B1134900E0134953F81F
:1009A0002000097802EB8111455210E00F4F53F8F7
:1009B00020303C5D02EB84129D5256F82020D2F884
:1009C0007C31095C012088400343C2F87C310298E5
:1009D000FFF765FC39E700002C31001440010010DE
:1009E00064010010580100105A0100105E0100104F
:1009F00074010010C0150010C01100103431001433
:100A00006C01001070B50F4C2169014421616169CE
:100A100008446061A168884201D900F0A5F8216905
:100A2000A068094D814201D2084608E00A1A291837
:100A30000548FFF7D2FCA1682069401A20612844CC
:100A400070BD0000D0000010C00100102DE9FC4175
:100A50000546022700908DF8047010203F4E8DF857
:100A600005000021304600F0B1F8304600F068FD86
:100A70006A460021304600F0ADFC0021304601F00E
:100A8000C5FC306820F4004030600021304601F0A1
:100A9000B1FC042301220021304600F063FD304800
:100AA000012211070023016000F05EF805EB8500CC
:100AB000C0004FF47A74B0FBF4F045F2226E294C7A
:100AC000A5EB0E0C40F2E46175451DD00ADCB5F5CE
:100AD000FA5F20D0B5EB6E0514D0A5F598556F3DA3
:100AE0001CD11AE0ACF5185CBCF1DE0C30D0ACF5D2
:100AF000305CBCF5517C0BD0ACF5406CBCF54F7C48
:100B00000CD127E0E26101E0032002E0A16006E0F1
:100B10000520E061FAE7E36100E0E761A060E069D9
:100B2000104D00EB80002E3500212A5C304601F08C
:100B30000DFCE069002100EB800028440379C278B5
:100B4000304601F050FCA0684000A060BDE8FC8188
:100B5000042100E00621E161E0E7000000200A40F6
:100B600000E100E0D0000010024800214161016175
:100B7000C1607047D000001070B5054600220A2100
:100B8000022000F0FDFC0F4C01230E220021204624
:100B900000F028FB0120A0730B49491EFDD2002064
:100BA000A0730948401E401EFDD20DB1012000E097
:100BB0000020404200F00C0001F0C6FD002800D0EB
:100BC000012070BD00400F409F8601007CB50446A7
:100BD0004BF68030009002208DF8040010208DF834
:100BE00005000D46204600F0ABFC6A460021204679
:100BF00000F0F0FB2846FFF7BFFF0128FAD17CBDCB
:100C000010B5012804D0084940F60800086010BD5E
:100C1000C1220321022000F0B3FCC1220421BDE85F
:100C20001040022000F0ACBC846C084010B501F00C
:100C300009FC44220621022000F0A2FCD222052158
:100C4000022000F09DFC44220721012000F098FCC6
:100C50000D4C012306220521204600F0C3FA0A4864
:100C60000121A03081710B460C22204600F0BAFA17
:100C700001230B221946204600F0B4FA0249012054
:100C800020310873C87210BD00400F40044A81F043
:100C9000010118B1012800D1D1727047117370475A
:100CA00020400F4070B5164CDDE90450A479944201
:100CB00024D1012B22D1124C203C012902D08129C0
:100CC0001CD10EE0C5B100684BF6803120F07F40AA
:100CD0006060884212D8FFF71FFD6068FFF7B6FE1C
:100CE0000AE04DB1032129806168090C8170A18857
:100CF000090A417021790170012070BD002070BD8A
:100D0000F0000010012801D0002070470868FFF7AC
:100D100079BE000010B50A0ACCB200210846012AAB
:100D200004D0022A05D0032A15D106E00B4912206F
:100D300011E00A49123171200DE0084A0C3A24B141
:100D4000012C04D0022C06D103E0116802E05168A6
:100D500000E091680878196010BD00000C000010D8
:100D600005490028486802D020F0200001E040F04A
:100D7000200048607047000000300440B0F5917FCB
:100D800007D9094901EBC000016821F001010160A8
:100D90007047064901EBC000D0F8001121F00101B5
:100DA000C0F8001170470000E8170540001005402A
:100DB0000248416C41F00101416470470000054068
:100DC000B0F5917F07D9094901EBC000016841F0F6
:100DD000010101607047064901EBC000D0F8001125
:100DE00041F00101C0F8001170470000E81705400C
:100DF000001005401C2806D2034901EB8000C16D9C
:100E000021F00101C165704700000540054988696E
:100E10008A6920F00200824200D0886120F001003F
:100E2000886170470000054010B5012401B103241A
:100E30000AB144F00404022B01D144F02004B0F5BF
:100E4000917F03D9044941F8304010BD034901EBBB
:100E5000C000C0F8004110BDE81705400010054073
:100E6000034901EB0010016A21F0010101627047A2
:100E7000000005401C2805D2054901EB8000C06D2B
:100E8000C10701D011207047C0F304607047000013
:100E90000000054010B5FFF7EDFFBDE8104000F081
:100EA00001B80000024600201249112A0CD2DFE8E6
:100EB00002F0090E0B0C0B0B0E100B120B0B141681
:100EC000181A1C004FF4004070470B487047084642
:100ED00070470A48704700F03DB8002106E0012144
:100EE00004E0022102E0032100E00421104600F0AA
:100EF00007B80000001BB70080F0FA0200389C1C05
:100F000010B50B46084600F017F80246184600F0E8
:100F100009F804461046FFF7C5FF641CB0FBF4F067
:100F200010BD0000034901EB8000806CC0F383001A
:100F30007047000000000540054901EB8000806C0F
:100F4000C10701D011207047C0F304607047000052
:100F500000000540F8B5144D6C6CC4F30360FFF756
:100F6000A1FF12A109680091296CC90713D0C4F32D
:100F70000742C4F30131C4F30125C4F3C013521C6A
:100F8000C4F38014491C1DF80550234305D0B0FB61
:100F9000F1F05043F8BD0020F8BD6B00B2FBF3F256
:100FA000B0FBF1F05043F8BD000005400102040819
:100FB000024901EB0010C0697047000000000540C5
:100FC0002DE9F041B0F5917F03D9194951F830402E
:100FD00004E0184901EBC001D1F80041E10725D038
:100FE0001C210022144B0DE033F81660864208D80D
:100FF0006D88854205D302EB420003EB4000017986
:1010000007E0521C02EB420603EB46052F798F42A4
:10101000EAD10846FFF73EFF6109490704D00221E3
:10102000B0FBF1F0BDE8F0810121F9E70020F9E71C
:10103000E8170540001005402E30001430B50B4C69
:1010400004EB8005EC6D1C280DD211290AD008484C
:1010500004400AB144F400640BB144F0010444EAD2
:101060000160E86530BD44F00100FAE7000005408A
:10107000FEF7FFE00A4B10B503EB8003986C521E9D
:10108000112908D0074C204040EA016040EA820064
:1010900040F4006001E040F00100986410BD0000E1
:1010A00000000540C2FFFFE02DE9F04799461546D4
:1010B00088468246FFF7F6FE0646681C1AD0B5FB46
:1010C000F6F44B4642462146304600F07FF807468C
:1010D000641C4B4642462146304600F077F837B153
:1010E00018B1E91B401B814202D9611E15E008B10D
:1010F000214612E0B8FBF6F4B9FBF6F700254B46A3
:1011000042462146304600F061F800B12546BC4217
:1011100001D2641CF3E72DB129465046BDE8F047E3
:1011200000F004B80020BDE8F08700002DE9F04190
:101130000C460546FFF7B6FE174F002633467A6C7D
:10114000012122F0F85242EA0562144D60432A4020
:10115000134D641EA84201D30EE05B1C490001FB45
:1011600000FCAC45F9D3210441EA063141EA0321F0
:10117000114341F0400106E00A49884208D242EAA0
:10118000044141F0C00121F001017964BDE8F08122
:10119000FFF70EFE0020F9E7000005403DCC00FF00
:1011A000005F4C0900D0121310B51368064C43EAD7
:1011B000006304EB0110036251684162916881622F
:1011C000D068E06310BD0000000005404843904235
:1011D00004D30349884201D8984200D900207047BF
:1011E00000CB280C00EB810000F50050012191405C
:1011F00002680BB10A4300E08A43026070470000B6
:10120000064AC0EBC00002EB8000012904D100694E
:10121000143001780429FCD07047000088010010C8
:1012200070B506460A4AC0EBC60002EB80050129EC
:101230000DD12C69143407E028680068C0F3C000A1
:1012400010B1304600F054F820780428F4D070BD76
:10125000880100100349C0EBC00001EB80008068EA
:10126000704700008801001070B5064DC0EBC00447
:1012700005EB84008088FFF7A3FD55F824006C215E
:10128000816170BD88010010FFB587B00E4607462A
:101290001D4618216846109CFFF7E4F809A8019044
:1012A0000120CDE902058DF80060049469463846B6
:1012B00000F036F80228F9D004980BB0201AF0BDDF
:1012C000F0B587B00E4607461C46154618216846FD
:1012D000FFF7C8F88DF80060CDE90154694638463B
:1012E00000F01EF80228F9D0029807B0201AF0BDCD
:1012F00070B50546094AC0EBC50002EB800452F800
:101300002000216900F097FF002805D12846A26837
:10131000BDE870400221104770BD00008801001038
:1013200070B50D4606461649C0EBC60001EB8004B9
:101330000321A26830469047042028752561606922
:1013400020B920683C21816160210160A2680121EF
:1013500030469047002020612268106840F300105A
:10136000401CFAD0208B10F47F4F03D038209061BE
:1013700044201060A268042130469047287D70BD4B
:101380008801001070B50D46C0EBC001074850F849
:10139000214000EB81008088FFF712FEB0FBF5F0E2
:1013A000410821612169401A606170BD8801001007
:1013B000074AC0EBC00002EB8000026902B98160FD
:1013C0008068884201D101207047002070470000EA
:1013D000880100102DE9F74F82B0904600274FF6A4
:1013E000FF7B2320FFF7ECFD814698F80550D8F8E5
:1013F00000A00026AAFB0501890441EA903180047F
:101400004A463346FEF772FF5FF04004A0FB042318
:1014100001FB043300FB06334FF4803CB2EB0C02BB
:1014200073F1000202D3641EF0D10BE054B1A0FBB3
:101430000420FF214FF40043A1FB020C5FEA106C73
:101440000ED103E0002005B0BDE8F08F80B29842D5
:1014500001D9404280B210B3584501D283468FB2C1
:10146000491EE9D1A7FB0A12B2463046A1FB053658
:1014700002FB056201FB0021DA18A2FB0436494198
:1014800001FB046102FB0A11D81849414A460023B6
:10149000FEF72CFF86B2FF2E03D9FF2603E08FB2A2
:1014A000E0E706B90126082D01D8002204E0102D3E
:1014B00001D8012200E00322DDE9020100F086FFED
:1014C00098F80400012826D05FF00002DDE902014F
:1014D00000F05EFFDDE90201002200F04CFF98F809
:1014E0000520DDE90201521E00F05FFFDDE9020187
:1014F00000231A46CDF800A000F01DFFDDE902012F
:10150000621E00F023FFDDE90201FBB2F2B200F03F
:101510006AFF012097E70422D8E7000010B500F029
:10152000E2FE06490878401E10F0FF00087004D162
:10153000BDE810402320FFF721BC10BD21010010A1
:1015400070B5074C0546207810B92320FFF738FC0A
:1015500021782846491C2170BDE8704000F0D8BEB3
:101560002101001070B51E460C46054600F0D1FE64
:10157000324621462846BDE8704000F0ECBE00002F
:10158000C00100EB810001494250704700600840F3
:101590002DE9F05F07463F480E46DFF8FCB050F8F3
:1015A00027009A4600EB46143A485BF827100838A3
:1015B000904650F827004FF0010900EB8615F00720
:1015C00000D0102000EB560209FA02F0D1F8B82141
:1015D0001042F4D120212046FEF744FF5BF827207B
:1015E00073084FF4E07101EB83015358C3F3810397
:1015F000012B47D05158C1F38141012942D0C4F891
:10160000009062686AF31E426260616841F40041C2
:101610006160616841F08001616008F580516FF39D
:101620000B01C4E9028108F500516FF30B01216140
:1016300008F540516FF30B01616108F580416FF3CC
:101640000B01A161E96821F04001E960E96821F03E
:101650008001E9600F4951F8271001EB4611A9609C
:10166000A5F830A0F10700D010215BF8270001EBAE
:10167000560209FA02F1D0F8B0211143C0F8B011B6
:10168000BDE8F09FC4F800902A6869F39F722A6051
:10169000B7E700003C3100142C31001400E0104684
:1016A0000268D307FBD00160704700002DE9FC5FA2
:1016B0000546454850F82540D4F84801D4F844611F
:1016C00006407FD0C4F84461F00707D0D4F8AC01DD
:1016D000D4F8BC0110B1284600F05AFFF0034FF0D7
:1016E00000094FD5D4F87801D4F87C1108405FEA9E
:1016F0000008C4F8780145D000274FF0010A4FF4E4
:10170000007B38E00AFA07F010EA080F31D07906BA
:10171000D4F8B821090E02422BD12C4A322303EB14
:10172000811352F82520D25A1ABB39B1284B05EB48
:10173000450203EBC202526962B11AE025484946EC
:1017400040F82590D4F87C0120F00100C4F87C0119
:10175000214808E0214B43F82590D4F87C218243AE
:10176000C4F87C211E485B4600EB45222846FFF763
:101770000FFF7F1CFFB20DB1082000E00C20B7EB7B
:10178000500FBFD3300601D501F090FB700619D57C
:10179000284600F04BFB1349022048554026002301
:1017A000CDE900694C461A461946284600F0AAF8C9
:1017B0008023CDE9006400221146284600E001E0C4
:1017C00000F0A0F8BDE8FC9F2C3100143431001467
:1017D0008032001050010010C01100107C01001078
:1017E000C0190010480100102DE9F0410D461E46B9
:1017F000174604462021FEF735FE01202060606870
:1018000067F31E406060606866F3CF3060606068B8
:1018100040F080006060A56005F58055280B00034E
:10182000E060BDE8F0817047FFF79EB90148FEF720
:1018300087BF0000F00000100148FEF7A7BF0000BE
:10184000F000001070B52949294E4FF000050978C5
:101850000B06A6F10C010A5C2BD5264C32232AB1CB
:10186000083646F8205080B18E1C10E046F8205013
:1018700010B11F490A3901E01D49891F54F82000A1
:10188000097803EB8111455270BD194EB61FB25C49
:1018900003EB821254F820309D52174A52F8202050
:1018A000D2F87C31095C012088400343C2F87C31C6
:1018B00070BD04461AB124B10D480A3803E0012175
:1018C00002E00B48801F815C62B1094E103656F869
:1018D00024300A4800EB44222046FFF759FE46F820
:1018E000245070BD56F824300548F3E7400100103D
:1018F00064010010343100142C310014C0150010A4
:10190000C01100102DE9F84F81469B4690460E46C7
:10191000180000D001203D4900EB460551F8290090
:101920004FF4E07101EB86014718D7F800A0384961
:1019300051F82900402100EB85142046FEF792FD66
:101940000A98C0F30901206861F31A4020602068FA
:1019500040F400402060206840F0005020600120EA
:10196000A0600021BBF1000F0CD04FF440231FFA00
:101970008AF003EA8842024342F44004B8F1010FBE
:1019800028D035E04FEA1A420C244FEA024204EA1A
:101990008803134343F0C004B8F1010F0ED0E907E8
:1019A00000D0102101EB55018840184951F8291049
:1019B000D1F87C211043C1F87C0119E0042000918A
:1019C000386069463046FFF79DF90246E9B24FF4A8
:1019D00000730AE04FF48020009138606946304679
:1019E000FFF790F9009B0246E9B24846FFF7D0FDA9
:1019F0003C6006B90025E9B2B9F1000F01D00548F5
:101A000000E0054881550120BDE8F88F2C31001415
:101A1000343100145A0100105E010010064A52F8D9
:101A20002000826A0A60C26A4A60C988002901D01F
:101A30000021418670470000343100142DE9F04345
:101A40000446244F244D322657F82430285D4FF0A9
:101A5000000814B1DFF884C001E0DFF884C01CF88E
:101A600000C006EB8C1C33F80CC0BCF1000FF0D0AA
:101A70004FF001090023204600F03AF8295D404666
:101A800029B1184A42F824007CB1144A0EE01649E4
:101A900041F824000CB1114900E0114957F8242005
:101AA000097806EB8111505211E00D4A515C57F84C
:101AB000242006EB811150520C4850F82400D0F835
:101AC0007C212B5D09FA03F10A43C0F87C21002038
:101AD000BDE8F08334310014580100105A010010A1
:101AE0005E0100106C010010640100102C31001424
:101AF0002DE9F043224F8946224C395C224B21B11B
:101B000053F8201021B1002120E054F82010F9E70B
:101B10000520BDE8F0833D5CE5B11C4E56F8205031
:101B2000DFF86CC00CEB402C15F80C5056F820C0B8
:101B300080460CF1010C46F828C053F82060761E50
:101B400043F8206009F80150491C89B29142E2D360
:101B50000020DEE70F4E56F82050DFF83CC00CEBBB
:101B6000402C15F80C5056F820C080460CF1010CA2
:101B700046F828C054F82060761E44F82060E1E75B
:101B800058010010500100107C0100106C01001081
:101B9000C019001064010010C01100102DE9FF4FA2
:101BA00081B098469146060001D03B4800E03B4892
:101BB0003B494FF0010B895D475C3A4906EB460013
:101BC00001EBC005384850F826A0384850F82600E8
:101BD000F90700D0102101EB57020BFA02F1D0F8FF
:101BE000B8211142F4D1002418E0102C18D0A8F12B
:101BF0000100844222D00F2C20D0002302990AEB4E
:101C0000441004FB09114A460090FFF7EDFD1CB19A
:101C100050460099FFF742FD641CA4B24445E4D34A
:101C20000022B8F1100F0BD9A8F11000A86002989B
:101C3000C5F8109000EB0910286004E00123DDE7EF
:101C40002A612A60AA601848C5F81480103850F834
:101C5000260000EB8710C16821F04001C160C16817
:101C600021F08001C160C0F808A008FB09F10186DD
:101C70004286F80700D0102000EB57010BFA01F064
:101C80000A4951F82610D1F8B0211043C1F8B0012B
:101C900005B0BDE8F08F00005A0100105E01001091
:101CA0005801001080320010443100142C3100140F
:101CB00070B504461348C088904200D802460023FD
:101CC000204600F02FF81048005D10B11CB10F49FC
:101CD00002E0012101E00E49095C002568B10D4ECA
:101CE00056F824300C4800BF00EB44222046FFF792
:101CF0004FFC46F82450002070BD084E56F82430A2
:101D00000748F1E740010010580100105A01001087
:101D10005E01001074010010C01500106401001075
:101D2000C0110010F8B5254B4FF0080E002653F8EF
:101D30002050234B1B5C0DE001244FF47A6C00967D
:101D4000009F7F1C00976745FAD32700A4F1010488
:101D5000A4B2F4D113B118B11A4F02E0012401E08A
:101D6000194FFC5C0EEB8417EF59FF07E4D04FF0DE
:101D70000C0C0CEB84142C592406DDD4002412E046
:101D80000D5DA3B1114E56F82070DFF844C000BFBE
:101D90000CEB402C07F80C5056F820506D1C46F800
:101DA0002050641CA4B29442EAD30020F8BD094E2E
:101DB00056F82070DFF820C0EAE700003431001444
:101DC000580100105A0100105E010010740100104B
:101DD000C015001064010010C01100100A48416ACB
:101DE00011F0010F0FD0016811F0010F03D1416A0A
:101DF00041F0010141620548017881F00101017063
:101E00000120FEF743BF7047007008402401001016
:101E100008B1092000E008200121814040094FF06D
:101E2000E02202EB8000C0F80011704730B53D4B56
:101E300053F8201001F5E0710A6822F080120A6060
:101E40004A6822F080124A608A6822F080128A6012
:101E5000CA6822F08012CA60A1F5E07158B9D1F8C1
:101E6000D02122F08012C1F8D021D1F8D42122F063
:101E70008012C1F8D42101F5A2714FF0FF344C63F8
:101E800000228A630C608D6E8D668D6F8D67A1F563
:101E9000A27100BFD1F8B051002DFBD1C1F8B441FF
:101EA000D1F8B441002CFBD101F5A0710C6824F4E9
:101EB0007F040C601C4C54F820408C611B4C8C60DF
:101EC00053F82010C1F8542153F82010D1F85431A0
:101ED00043F08073C1F8543115490A54002105E0DC
:101EE00008B1144B00E0144B5A54491C10B104299A
:101EF000F6D301E00629F6D3104941F82020104915
:101F000041F820200F4941F820200F4941F82020B6
:101F10000E4941F820200E4900EB400001EBC000C3
:101F2000426130BD2C31001434310014C70101006E
:101F3000580100105A0100105E01001050010010FD
:101F4000640100107C0100106C010010740100108D
:101F500080320010074A002952F82000D0F84011C2
:101F600002D041F0010101E021F00101C0F840116F
:101F7000704700002C31001470B5284D0446285DD0
:101F8000A0BBC4F10100285C38B90020FEF768FF4F
:101F90000020FFF70DF8C007FAD084B10320FEF748
:101FA00029FF01231A4619466E20FEF73DFF012046
:101FB000FEF7D6FE1A48005D01280DD00FE0012083
:101FC000FEF718FF01231A4619466520FEF72CFF7D
:101FD0000120FEF7C5FE07E01249122008601248F2
:101FE000016841F080710160012028550F480221ED
:101FF00050F82420C2F8401150F82400D0F84021B5
:102000009207FBD4C0F8A81114B909490920086047
:102010002046BDE87040FFF709BF000084010010B2
:102020003C010010806C0840847100402C31001489
:10203000A46100402DE9F0412A4D0021284600F01E
:102040005FF904284BD80026274CDFF8A080C0F1A8
:10205000080714E0606904280CD3001F6061E06881
:1020600058F80010001DA161E060A168884201D30A
:10207000401AE0602846A16900F066F9761CB74274
:10208000E8D8A16800292AD01748626901EB8103CA
:102090002E30B2EBD30F0ED3217800291FD1E16986
:1020A00001EB81010844002183784278284600F042
:1020B0009AF9012012E001EB4101B2EBD10F0ED2EF
:1020C000217800290BD0E16901EB8101084400214E
:1020D0000379C278284600F086F900202070BDE818
:1020E000F081000000200A40D0000010C001001064
:1020F0002DE9F04F8BB04FF6FF704FF000090390C1
:10210000019017460E46CA462320FEF759FF0546A2
:10211000707931684024A1FB0001890441EA903BB9
:1021200080044FF000080090009AA2FB040C0BFB07
:1021300004C302FB08312A460023FEF7D7F8024603
:102140004FF48033C01A71F1000002D3641EEBD14A
:1021500009E044B1FF204FF4004BC446A0FB02311C
:10216000190E1AD103E000200BB0BDE8F08F99B230
:1021700059450CD9C3F30743C1F58031FF2B0CD06F
:10218000019B994209D21FFA80FA019105E0039B55
:10219000994202D21FFA80F90391401EDED1601EDF
:1021A00038703168C346AAFB012371794046A2FB0F
:1021B00001C803FB018102FB00111CEB0C02A2FB16
:1021C000043C494101FB04C102FB0B11D8184941F1
:1021D0002A460023FEF78AF8401C80B2FF2801D966
:1021E000FF2001E000B90120787087F802A0316873
:1021F000A9FB01237179A2FB016C03FB01C102FB66
:102200000B11B219A2FB0436494101FB046102FB28
:102210000B11D81849412A460023FEF767F880B20F
:10222000FF2801D9FF2001E000B90120F87087F8EC
:102230000490012098E730B543683C2203F0F8038E
:1022400013F0070F3ED1DC100C2C3BD2DFE804F07A
:102250003708081232123234063225240B6924E082
:102260008B682BB100230C7843EA4403836029E098
:102270000123F8E78B6843B14B685C1C4C601B780A
:1022800083608B685B1E8B601CE00B690BB12023A5
:1022900000E010239A4315E02C228468CB685D1C73
:1022A000CD601C700B695B1E0B61012B0ADD22F0F7
:1022B000040207E0012203E002230B7502E003227F
:1022C0000A752C2282F03C0303608261D006087DEF
:1022D00003D5022805D0012030BD042801D10020FB
:1022E0000875002030BD40F2E171416048F2E171B3
:1022F00001600021C16101634163416181617047F7
:10230000006911B1C0F303207047C0F30340704768
:102310007047012AC26906D0012909D06FF0020175
:102320000A40C2617047012900D002210A43F8E740
:102330006FF00101F4E710B51A43029C224309B182
:10234000426310BD026310BD8160704709B1C26273
:102350007047826270470129C16902F00F0205D0FF
:1023600021F4702141EA0241C161704721F470619A
:1023700041EA0221F8E729B1416821F02001114327
:1023800041607047016821F02001114301607047EE
:1023900029B1416821F0040111434160704701688F
:1023A00021F0040111430160704747F6C073C2F386
:1023B000080229B14168994341EA8211416070479E
:1023C0000168994341EA82110160704729B141686F
:1023D00021F00301114341607047016821F00301BE
:1023E00011430160704743EA022209B1426270471B
:1023F0000262704721B1416821F0180141607047C5
:10240000016848F2180291430160704721B14168A8
:1024100041F0180141607047016821F400410160FA
:10242000016841F0180101607047000010B5FEF727
:10243000FDFB03480121807ABDE8104000F038BD63
:10244000F000001010B56920FEF7BAFD014948619F
:1024500010BD00002401001070B50C480C4901604B
:1024600000F080FD00F01AF80A490B4D002000BF73
:1024700001EB800411F820206378D20102EB830283
:1024800064885451401C1128F2D370BD08ED00E05F
:1024900000000014C83000140060084070B5FEF75A
:1024A000B5FC0023012206210420FEF7C7FD324AB5
:1024B000324C134621460620FEF7F6FD002301228A
:1024C00009210420FEF7BAFD2D4A214613460620B5
:1024D000FEF7EAFD2B4D002405EB8400C3788278DB
:1024E000417815F82400FEF7A9FD641C162CF3D3DF
:1024F0002548416821F00C014160416841F0030129
:10250000416020490020214D583100BF01EB80047B
:1025100011F820206378D20102EB830264885451C1
:10252000401C0628F2D3052209210420FEF7A2FD53
:102530000023012210210520FEF780FD022209213F
:102540001046FEF797FD0F4A002170320620FEF775
:102550002BFE042207210020FEF78CFD02220C2115
:102560000320FEF787FDBDE8704001230F211A46C6
:102570000320FEF763BD000000E1F505001BB70076
:1025800000CB280C483000140030044000600840A4
:102590002DE9FE4FDFF89C910546674A59F8250062
:1025A00005EB450102EBC106D0F8BC71C0F8BC7167
:1025B000002F7DD000244FF4E07A4FF00108DFF8BF
:1025C0007CB1ACE008FA04F0384263D059F8251029
:1025D0000AEB84000858C0F38100012825D05BF87D
:1025E00025100C2000EBC4100858C0F30E42302018
:1025F00000EBC41001900B5A9A1A0A52706990B3FA
:10260000B16889B35BF825200198105A0290002028
:102610000090308A8BB282B228463168FFF7BEFA4A
:102620005BF82520DDE9010127E05BF8252030205B
:1026300000EBC410105A00905BF825200C2101EB30
:10264000C4115158C1F30E41401A0090694620460A
:10265000FEF758FB02466006010E4FF40073284651
:10266000FEF796FF12E002E0FFE7002070615BF8E2
:1026700025203220414600EBC4101152A4B35BF870
:1026800025100198085A2E4941F8250000212046BE
:10269000FFF7C9F804F1100108FA01F038423CD004
:1026A00059F825000AEB84014058C0F3814000E04E
:1026B0003DE001281ED0B06848B35BF825203021EA
:1026C00001EBC4110291525A0021CDE9001283B2EC
:1026D000308A316882B22846FFF760FA5BF825003D
:1026E000DDE90112815214E0FFE75BF82500008E5E
:1026F0001449C9E769462046FEF704FB024608EB89
:102700004400C1B22846009BFEF742FF01E00020D2
:10271000706101212046FFF786F8641CE4B20DB118
:10272000082000E00C20B4EB500FFFF44BAFBDE8E5
:10273000FE8F00002C310014803200103431001460
:102740007C0100105001001070B505460020FEF716
:1027500081FD06460020FEF753FA0020FEF784FDB7
:1027600018490020FEF70EFE17490020FEF720FE54
:102770000B211648FDF7C2FF04001CD013480B21A3
:102780000B30FDF7BBFF040015D0104809211630AF
:10279000FDF7B4FF04000ED06DB14AF2545102208F
:1027A00000F060F8040006D0A8B240F00101222039
:1027B00000F058F8044631460020FEF7F9FD2046A7
:1027C00070BD0000A0860100211200140C3100141D
:1027D0001CB502210246009101AB1A210020FEF730
:1027E00053FD022801D000201CBDBDF8040040BAF2
:1027F0001CBDF8B51C460093154613460E4602460E
:102800001A210020FEF740FDA0420CD1002004E078
:10281000315C2A5C914202D1401CA042F8DBA0420C
:1028200001D10120F8BD0020F8BD08B503238DF8C3
:102830000000080A8DF801008DF802106A461A217E
:102840000020FEF73DFD08BD10B50C46CBB2024698
:102850001A210020FEF734FDA04201D1012010BD55
:10286000002010BD70B50C460546FFF7DEFF284678
:10287000FFF7AEFFA04201D1012070BD002070BD66
:10288000044801780078012802D10020FEF70EBF2D
:10289000704700003C01001003484178407801284F
:1028A00001D1FEF703BF70473C010010F0B4404B6C
:1028B000404C1A461978557811F01F0651883E4A47
:1028C00005D0022E71D111F0FF0F0BD02EE0C9B24E
:1028D00001296AD1032D03D00021384B997025E0DE
:1028E0000121FAE7197911F00F015ED021544FF45C
:1028F000E073032D03D000282DD0314D2CE00028AB
:1029000001D02F4D00E02F4D6D5C4FEA550503EBD4
:10291000850652F82050AE5946F0011640D141E0EC
:10292000795C4FEA510103EB81016E504FF00001D9
:10293000215452F8201001F5BE710A6B0A63224B34
:102940004FF0000243F820200A6842F001020A60BA
:10295000F0BCFEF777BF1B4D6D5C4FEA550503EBEE
:10296000850652F82050AE5926F0011601D0144FBA
:1029700000E0144F795C4FEA510103EB81016E5086
:1029800001D00F4D00E00F4D215C6D5C4FEA550505
:1029900003EB850652F82050AE5946F0401601D0A0
:1029A000074FBDE7074FBBE7FFE7F0BC70470000EC
:1029B00040010010580100102C3100144A01001091
:1029C0005A0100105E010010640100102DE9F04171
:1029D0000446294850F8240000F5BE70016B0163DD
:1029E000264D002745F82470016841F0010101607F
:1029F0002348264EA44601782248035D2248002B36
:102A000000EB4422224800EB44200DD056F82CC0A5
:102A10000CF8001056F8241001F1010146F82410BA
:102A20000DD14FF001010FE055F82CC00CF8021049
:102A300055F8241001F1010145F82410F0E70CB11C
:102A4000144900E01449C95C63B156F824300246C9
:102A50002046FEF79DFD204646F82070BDE8F04177
:102A6000FEF7F0BE204655F82030FEF791FD2046D7
:102A700045F82070F2E700002C31001464010010CA
:102A80004A01001058010010C0110010740100101C
:102A9000C01500105A0100105E010010F8B5044680
:102AA00022486B46027941882046FEF733F902003E
:102AB00029D01F4E56F8240000F5BE70016B01634B
:102AC0001C4F002547F82450016841F001010160C6
:102AD00020460099FFF7ECF8174B184932201A5D91
:102AE0002AB1174F47F8245074B1164F0DE047F83C
:102AF00024500CB1134A00E0134A51F82410127804
:102B000000EB82100D52F8BD0F4F51F82410BA5C43
:102B100000EB82100D5256F82400D0F87C111B5D9A
:102B200001229A401143C0F87C11F8BD4001001009
:102B30002C310014640100105801001034310014CD
:102B40006C0100105A0100105E0100102DE9F041E7
:102B50004B4B044600201D784A494B4A802D08D033
:102B6000822D6ED1187900F00F00105554B1474BEB
:102B700009E0474B5D7805B101209B7893B140F0A7
:102B800002000FE0434B185C4FF4E073400803EB86
:102B9000800351F82400C05810F0011000D001202B
:102BA0000023135551F8241001F5BE710B6B0B6314
:102BB000394D4FF0000845F824800B6843F00103BD
:102BC0000B6012F804C0354A354E02EB4427354AF3
:102BD000BCF1000F02EB4422234617D056F82330F5
:102BE000985456F82410234601F1010146F82310A9
:102BF00019464FEA102014D155F82130D85555F810
:102C0000210000F1010045F8210013E055F82330C0
:102C1000D85555F82410234601F1010145F8231039
:102C2000E6E756F82130985456F8210000F10100EB
:102C300046F8210002D14FF0010106E011B113481E
:102C400001E01BE0134810F80C10BCF1000F204607
:102C50000BD056F82030FEF79BFC214646F8218029
:102C6000BDE8F0410846FEF7EDBD55F820303A4684
:102C7000FEF78EFC214645F82180F1E7BDE8F081A2
:102C8000400100102C310014580100105A010010AE
:102C90004A0100105E01001064010010C011001014
:102CA00074010010C015001070B504463649FEF7D7
:102CB000B5FEFEF7C1FD354D55F82400D0F8AC0146
:102CC000002630B33049087849780A292CD2DFE849
:102CD00001F0050D2B0D2B14192B2127802801D075
:102CE000822821D12046FFF731FF1DE008B10228DC
:102CF0001AD12046FFF7DAFD16E050B9204600F061
:102D00004FF811E0802801D081280DD12046FFF72F
:102D1000C5FE09E0802807D12046FFF757FE03E0F3
:102D200010B9204600F094F855F82400D0F8AC1102
:102D3000002927D000F5BE70016B0163144941F8EA
:102D40002460016841F00101016012494FF4E07014
:102D5000002C01D0104A00E0104A095D525C4FEA95
:102D6000520200EB820355F82420D35843F001139C
:102D700001D0094C00E0094C615C4FEA510100EBC5
:102D80008100135070BD0000400100102C31001470
:102D900064010010580100105A0100105E0100107B
:102DA0002DE9F04104462248224E807800F07F054C
:102DB00056F8240000F5BE70016B01631E4A002125
:102DC00042F82410016841F0010101602046FEF73D
:102DD00039FD1A481A490823005D51F824204FF0A4
:102DE0000C0C10B11CB1174F02E0012101E0164F8D
:102DF000395C03EB8117D759FF07F2D00CEB811137
:102E000051580906EDD456F824106806C1F854014B
:102E100056F82400D0F8541141F08071C0F85411D4
:102E20000DB1032000E0022008490855BDE8F081FB
:102E3000400100102C3100146401001058010010F2
:102E4000343100145A0100105E01001048010010D6
:102E500070B504461048817801291BD80F4850F8F6
:102E6000240000F5BE70026B02630D4B002243F894
:102E70002420026842F0010202600A4D20462970B7
:102E8000FEF7E0FC08492A7804200855BDE87040A8
:102E9000FEF7CCBC70BD0000400100102C310014C6
:102EA000640100104A010010480100107047000042
:102EB00070B5044606480D4601552046FFF75CF8FC
:102EC0002946204600F008F802490120087070BD2C
:102ED0003C0100103E0100101CB501291AD1044626
:102EE0000D48002101550D480B460A4601700C485B
:102EF00001700C4801704020CDE900012046FEF72A
:102F000001FD2046FEF784FF2046BDE81C4001215C
:102F1000FFF720B81CBD0000480100104A01001056
:102F20004C0100104B01001070B504460948005DCB
:102F300000280DD0084E0020355D3055074850F868
:102F40002400D0F8AC0110B12046FFF7ADFE355596
:102F500070BD000048010010580100102C31001411
:102F6000FEE700000CB50C490A480A1D09680091EB
:102F700011680191094A0099914209D10199A1F181
:102F80008852113A04D1016841F470010091016046
:102F90000CBD000088ED00E040EF00E021001110C2
:102FA0001CB5FFF743FA02208DF8040010208DF8BD
:102FB00005004FF4FA501A4C0090184A6946204612
:102FC000FFF796F842F61130144A0090521D6946F8
:102FD0002046FFF78DF845F22260104A00900F322C
:102FE00069462046FFF784F84AF645400B4A0090B0
:102FF000193269462046FFF77BF84BF68130074AC5
:1030000000901E3269462046FFF772F8034C0E3CD2
:103010000121A07AFFF788FFFAE70000FE00001008
:1030200000200A404FF04070E1EE100A70470000A7
:1030300005000A00200024000900400040000500AF
:103040006000A60004000000000101000909010061
:103050000A09010001070101020901000609010036
:103060000C09010108030100070301000D0901001B
:103070000E0901000F0901001009010011090100EA
:1030800012090100130901001411010019110100B6
:103090001A1101001B1101000B0E0100030F0101A9
:1030A0000303F3000304F3000305F3000306F30036
:1030B0000307F3000308F3001D600000FA7F160603
:1030C0000000000000000000010FF3000000F2000B
:1030D0000110F7000001B6000113F0000112B30067
:1030E0000114B3000111F3000200B700020B180035
:1030F000020C18000300F2000600F4000702F200C0
:103100000602F3000701F2000601F300000F32008F
:1031100000A55F0000020210000000000000020293
:10312000000020E4E4000000010000000060004016
:10313000007000400020001000280010002A00103D
:10314000802B0010802C0010802E00106C31001499
:1031500000000010C001000050010014583200149B
:10316000C001001050430000AC010014228F1B105E
:1031700093041A9B0413120132021740C91F462000
:1031800001130102150109027013020135C0320951
:10319000042301011B09241A1A1E0B1D0C24020111
:1031A000113302031709240302010312011B09044E
:1031B0002319392909190119092B072409111A178B
:1031C0002E1702021005401F13112B132256134411
:1031D000AC1380BB2D0905010D61112B07255D2165
:1031E00010080403090408034E125812501C32033D
:1031F0004C061243125512531242126C126912629B
:103200001220124112751A640C1A6F0C1A4F0C1A04
:103210007408124412651A6D12711959011A39672E
:10322000190529EA11500B3F20C116893F1D83382B
:10323000FD4E3F3A8355C00A000A687483C9E33FD4
:10324000D5DD858A2D100A40229A12120212142B03
:083250000E40B709121C00003A
:0400000514000115CD
:00000001FF
