:020000041000EA
:10000000B03C08102901001031010010330100102C
:100010003501001037010010390100105A5A5A5AA0
:100020004301001043010010430100103B01001088
:100030003D010010430100103F010010410100107C
:10004000450100104501001045010010430100105A
:100050004501001045010010450100104501001048
:100060003D18001055180010450100104501001002
:100070004501001045010010450100104501001028
:100080004501001045010010450100104501001018
:100090004501001045010010450100104501001008
:1000A00045010010450100104501001045010010F8
:1000B00045010010450100104501001045010010E8
:1000C000E11200104501001045010010450100102B
:1000D00045010010450100104501001045010010C8
:1000E00045010010450100104501001045010010B8
:1000F00043010010450100104501001045010010AA
:10010000430100104501001043010010450100109B
:1001100045010010DFF80CD000F02CF80048004733
:10012000C91F0010B03C0810074880470748004727
:10013000FEE7FEE7FEE7FEE7FEE7FEE7FEE7FEE797
:10014000FEE7FEE7FEE700004D1500101501001068
:10015000D2B201E000F8012B491EFBD27047002209
:10016000F6E710B513460A4604461946FFF7F0FFB6
:10017000204610BD064C074D06E0E06840F0010344
:1001800094E8070098471034AC42F6D3FFF7C6FF57
:100190008C210010AC21001070B501EB020410F8A6
:1001A000015B15F0070301D110F8013B2A1106D1BC
:1001B00010F8012B03E010F8016B01F8016B5B1ED6
:1001C000F9D12B0705D40023521E0FD401F8013BAF
:1001D000FAE710F8013B02F10202A1EB030303E08E
:1001E00013F8015B01F8015B521EF9D5A142D6D389
:1001F000002070BD7CB5054600202873012416E060
:10020000A878A04202D1A888802304E0A879A0425F
:100210000BD1288900230221CDE9000101222146CA
:10022000304600F0F1FD002809D0641CE4B2AE7A3B
:100230000EB1042000E00620A042E1D801207CBDE0
:10024000704700002DE9FF5F817ADFF84492044691
:1002500059F82100D0F8AC210025002A51D08D4E4C
:1002600037463278B7F804C002F01F03012B02D0E2
:10027000022B04D01AE063789C4542D116E0854FEA
:10028000A3783F792BB143F080039F4201D1012332
:1002900000E0002394F80680B8F1000F03D0474532
:1002A00001D1012700E000271F432AD0794F73783E
:1002B0007F88812B4FEA1728774F71D023DC032BDF
:1002C0003DD004DC012B3AD0022B1AD137E0042BAD
:1002D00035D00B2B15D1012A13D100F5BE70026B5E
:1002E000026347F82150016841F001010160A07AE2
:1002F00000F02AFDB07800B1012020732046FFF7FE
:100300009FFFBDE8FF9F822B6AD0832B68D0842B90
:1003100066D0FF2BF5D1212A01D0222AF1D100F598
:10032000BE70026B026347F82150016841F0010181
:100330000160A07A04B0BDE8F05F00F005BD222A9C
:10034000DFD10CF0FF000095CDE901509B4602463D
:10035000C24643465946204600F00AF90028D0D04C
:10036000F088ADF80C0001F05DFEA17A804659F8E6
:10037000210000F5BE70026B026347F8215001684E
:1003800041F001010160A07ABDF80C20414600F067
:10039000D7FDA67A4148805D18B126B1404903E0F7
:1003A0001EE0012101E03F49095CA8B13E4F57F82A
:1003B00026303E4800EB4622304600F06DFB47F801
:1003C000265003A9CDE90018534659462046029A03
:1003D00000F0CEF8404657E057F826303448E9E7B9
:1003E000A22A8ED1F0889A460CF0FF0BADF80C00D3
:1003F00001F018FE03A9CDE90010029043465A46C9
:100400005146204600F0B4F858B3A17A4E4659F848
:10041000210000F5BE70026B026347F821500168AD
:1004200041F001010160A07ABDF80C20029900F0B2
:10043000C1FEA07A19491F4B32220C5C2CB11E4F11
:1004400047F8205070B1164F0DE047F8205008B122
:10045000134900E0134953F82000097802EB811199
:10046000455210E00F4F53F820303C5D02EB8412F0
:100470009D5256F82020D2F87C31095C012088403A
:100480000343C2F87C31029801F076FD39E70000A1
:100490006C210010400108101C0108101001081008
:1004A00012010810160108102C010810800908100C
:1004B00080050810742100102401081010B5C02216
:1004C0000721022000F0E0FA0023BDE8104080225E
:1004D0001946014800F0CBBA00400F4010B501F0BA
:1004E0002BF844220621022000F0CEFAD222052168
:1004F000022000F0C9FA44220721012000F0C4FACA
:100500000D4C012306220521204600F0B0FA0A48CE
:100510000121A03081710B460C22204600F0A7FA81
:1005200001230B221946204600F0A1FA02490120BE
:1005300020310873C87210BD00400F40044A81F09A
:10054000010118B1012800D1D172704711737047B1
:1005500020400F4010B5002407222146034800F038
:100560007FFA00B90124204610BD000000400F4072
:1005700030B51848DDE90354807840F0800090429F
:1005800025D1012B23D113480838012902D0812914
:100590001DD10FE0CDB121684BF6803221F07F41B3
:1005A0000160914213D849004FF47A72B1FBF2F125
:1005B00041600AE04DB1032129800168090CA17056
:1005C0000188090A617000782070012030BD002088
:1005D00030BD000008000810054A00F07F00012827
:1005E00052680A6001D0002070470248704700003E
:1005F000000008105401081010B50A0ACCB20021FE
:100600000846012A04D0022A05D0032A15D106E0A3
:100610000B49122011E00A49123171200DE0084AFD
:100620000C3A24B1012C04D0022C06D103E011684D
:1006300002E0516800E091680878196010BD000080
:100640002400081005490028486802D020F0200046
:1006500001E040F020004860704700000030044096
:100660000248416C41F001014164704700000540BF
:100670001C2806D2034901EB8000C16D21F0010165
:10068000C165704700000540054988698A6920F006
:100690000200824200D0886120F00100886170472A
:1006A0000000054010B5012401B103240AB144F053
:1006B0000404022B01D144F02004B0F5917F03D94A
:1006C000044941F8304010BD034901EBC000C0F8B7
:1006D000004110BDE817054000100540034901EB3B
:1006E0000010016A21F0010101627047000005401D
:1006F0001C2805D2054901EB8000C06DC10701D05F
:1007000011207047C0F304607047000000000540EE
:1007100010B5FFF7EDFFBDE8104000F001B8000094
:10072000024600201249112A0CD2DFE802F0090E1D
:100730000B0C0B0B0E100B120B0B1416181A1C00C3
:100740004FF4004070470B487047084670470A480E
:10075000704700F03DB8002106E0012104E00221CD
:1007600002E0032100E00421104600F007B8000079
:10077000001BB70080F0FA0200389C1C10B50B4635
:10078000084600F017F80246184600F009F804463B
:100790001046FFF7C5FF641CB0FBF4F010BD00006D
:1007A000034901EB8000806CC0F3830070470000B8
:1007B00000000540054901EB8000806CC10701D0B5
:1007C00011207047C0F3046070470000000005402E
:1007D000F8B5144D6C6CC4F30360FFF7A1FF12A1D0
:1007E00009680091296CC90713D0C4F30742C4F308
:1007F0000131C4F30125C4F3C013521CC4F38014A7
:10080000491C1DF80550234305D0B0FBF1F05043BF
:10081000F8BD0020F8BD6B00B2FBF3F2B0FBF1F0C5
:100820005043F8BD0000054001020408024901EBF5
:100830000010C06970470000000005402DE9F0413C
:10084000B0F5917F03D9194951F8304004E01849B7
:1008500001EBC001D1F80041E10725D01C210022A5
:10086000144B0DE033F81660864208D86D88854237
:1008700005D302EB420003EB4000017907E0521C74
:1008800002EB420603EB46052F798F42EAD1084678
:10089000FFF73EFF6109490704D00221B0FBF1F0E8
:1008A000BDE8F0810121F9E70020F9E7E8170540EC
:1008B000001005409020001030B50B4C04EB800573
:1008C000EC6D1C280DD211290AD0084804400AB149
:1008D00044F400640BB144F0010444EA0160E865AB
:1008E00030BD44F00100FAE700000540FEF7FFE0EC
:1008F0000A4B10B503EB8003986C521E112908D0E7
:10090000074C204040EA016040EA820040F4006069
:1009100001E040F00100986410BD000000000540B7
:10092000C2FFFFE02DE9F04799461546884682460A
:10093000FFF7F6FE0646681C1AD0B5FBF6F44B46E8
:1009400042462146304600F07FF80746641C4B467D
:1009500042462146304600F077F837B118B1E91B1E
:10096000401B814202D9611E15E008B1214612E008
:10097000B8FBF6F4B9FBF6F700254B464246214694
:10098000304600F061F800B12546BC4201D2641C3B
:10099000F3E72DB129465046BDE8F04700F004B812
:1009A0000020BDE8F08700002DE9F0410C46054627
:1009B000FFF7B6FE174F002633467A6C012122F06E
:1009C000F85242EA0562144D60432A40134D641EFA
:1009D000A84201D30EE05B1C490001FB00FCAC45C2
:1009E000F9D3210441EA063141EA0321114341F0E0
:1009F000400106E00A49884208D242EA044141F037
:100A0000C00121F001017964BDE8F081FFF728FE03
:100A10000020F9E7000005403DCC00FF005F4C09D5
:100A200000D0121310B51368064C43EA006304EBC0
:100A3000011003625168416291688162D068E0638D
:100A400010BD0000000005404843904204D3034914
:100A5000884201D8984200D90020704700CB280C6A
:100A600000EB4110805C002800D00120704700EBB3
:100A7000810000F500500121914002680BB10A434A
:100A800000E08A4302607047C00100EB8100014929
:100A900042507047006008402DE9F05F07463F482C
:100AA0000E46DFF8FCB050F827009A4600EB4614DB
:100AB0003A485BF827100838904650F827004FF066
:100AC000010900EB8615F00700D0102000EB56025C
:100AD00009FA02F0D1F8B8211042F4D120212046C1
:100AE000FFF73DFB5BF8272073084FF4E07101EB43
:100AF00083015358C3F38103012B47D05158C1F3ED
:100B00008141012942D0C4F8009062686AF31E4214
:100B10006260616841F400416160616841F0800198
:100B2000616008F580516FF30B01C4E9028108F59B
:100B300000516FF30B01216108F540516FF30B0178
:100B4000616108F580416FF30B01A161E96821F053
:100B50004001E960E96821F08001E9600F4951F83E
:100B6000271001EB4611A960A5F830A0F10700D0CD
:100B700010215BF8270001EB560209FA02F1D0F8C8
:100B8000B0211143C0F8B011BDE8F09FC4F8009047
:100B90002A6869F39F722A60B7E700007C21001081
:100BA0006C21001000E010460268D307FBD0016002
:100BB000704700002DE9FC5F0546454850F8254088
:100BC000D4F84801D4F8446106407FD0C4F84461A9
:100BD000F00707D0D4F8AC01D4F8BC0110B1284616
:100BE00000F050FDF0034FF000094FD5D4F8780124
:100BF000D4F87C1108405FEA0008C4F8780145D0B9
:100C000000274FF0010A4FF4007B38E00AFA07F0A2
:100C100010EA080F31D07906D4F8B821090E024243
:100C20002BD12C4A322303EB811352F82520D25AC0
:100C30001ABB39B1284B05EB450203EBC2025269DE
:100C400062B11AE02548494640F82590D4F87C0165
:100C500020F00100C4F87C01214808E0214B43F852
:100C60002590D4F87C218243C4F87C211E485B4641
:100C700000EB45222846FFF70FFF7F1CFFB20DB1A6
:100C8000082000E00C20B7EB500FBFD3300601D591
:100C900001F0EAF8700619D5284600F049FB13491F
:100CA0000220485540260023CDE900694C461A46EB
:100CB0001946284600F0A8F88023CDE900640022F8
:100CC0001146284600E001E000F09EF8BDE8FC9FD8
:100CD0006C21001074210010802A081008010810EF
:100CE0008005081034010810800D08104801081014
:100CF0002DE9F0410D461E46174604462021FFF718
:100D00002EFA01202060606867F31E406060606812
:100D100066F3CF306060606840F080006060A5607E
:100D200005F58055280B0003E060BDE8F0817047B1
:100D30000148FFF75FBA0000080008100148FFF7FC
:100D400081BA00000800081070B52949294E4FF0FB
:100D5000000509780B06A6F10C010A5C2BD5264C80
:100D600032232AB1083646F8205080B18E1C10E09C
:100D700046F8205010B11F490A3901E01D49891F6A
:100D800054F82000097803EB8111455270BD194ECB
:100D9000B61FB25C03EB821254F820309D52174A02
:100DA00052F82020D2F87C31095C012088400343AE
:100DB000C2F87C3170BD04461AB124B10D480A381E
:100DC00003E0012102E00B48801F815C62B1094E03
:100DD000103656F824300A4800EB44222046FFF72C
:100DE0005BFE46F8245070BD56F824300548F3E702
:100DF000400108101C010810742100106C21001023
:100E000080090810800508102DE9F84F81469B469F
:100E100090460E46180000D001203D4900EB4605E3
:100E200051F829004FF4E07101EB86014718D7F81B
:100E300000A0384951F82900402100EB85142046D4
:100E4000FFF78DF90A98C0F30901206861F31A4091
:100E50002060206840F400402060206840F000508E
:100E600020600120A0600021BBF1000F0CD04FF4E6
:100E700040231FFA8AF003EA8842024342F4400406
:100E8000B8F1010F28D035E04FEA1A420C244FEA9E
:100E9000024204EA8803134343F0C004B8F1010F8F
:100EA0000ED0E90700D0102101EB55018840184908
:100EB00051F82910D1F87C211043C1F87C0119E0C8
:100EC00004200091386069463046FFF785FB0246F2
:100ED000E9B24FF400730AE04FF4802000913860CB
:100EE00069463046FFF778FB009B0246E9B2484668
:100EF000FFF7D2FD3C6006B90025E9B2B9F1000F59
:100F000001D0054800E0054881550120BDE8F88F73
:100F10006C21001074210010120108101601081035
:100F2000064A52F82000826A0A60C26A4A60C9888A
:100F3000002901D000214186704700007421001073
:100F40002DE9F0430446244F244D322657F824302F
:100F5000285D4FF0000814B1DFF884C001E0DFF82D
:100F600084C01CF800C006EB8C1C33F80CC0BCF12C
:100F7000000FF0D04FF001090023204600F03AF8AE
:100F8000295D404629B1184A42F824007CB1144A30
:100F90000EE0164941F824000CB1114900E0114956
:100FA00057F82420097806EB8111505211E00D4AC0
:100FB000515C57F8242006EB811150520C4850F830
:100FC0002400D0F87C212B5D09FA03F10A43C0F814
:100FD0007C210020BDE8F08374210010100108106E
:100FE0001201081016010810240108101C01081035
:100FF0006C2100102DE9F043224F8946224C395CC8
:10100000224B21B153F8201021B1002120E054F8E7
:101010002010F9E70520BDE8F0833D5CE5B11C4EEA
:1010200056F82050DFF86CC00CEB402C15F80C5033
:1010300056F820C080460CF1010C46F828C053F841
:101040002060761E43F8206009F80150491C89B2DF
:101050009142E2D30020DEE70F4E56F82050DFF831
:101060003CC00CEB402C15F80C5056F820C08046C4
:101070000CF1010C46F828C054F82060761E44F8A4
:101080002060E1E710010810080108103401081081
:1010900024010810800D08101C010810800508109C
:1010A0002DE9FF4F81B098469146060001D03B489C
:1010B00000E03B483B494FF0010B895D475C3A49F2
:1010C00006EB460001EBC005384850F826A038482A
:1010D00050F82600F90700D0102101EB57020BFA57
:1010E00002F1D0F8B8211142F4D1002418E0102CFC
:1010F00018D0A8F10100844222D00F2C20D0002368
:1011000002990AEB441004FB09114A460090FFF7CC
:10111000EFFD1CB150460099FFF744FD641CA4B2DA
:101120004445E4D30022B8F1100F0BD9A8F1100008
:10113000A8600298C5F8109000EB0910286004E040
:101140000123DDE72A612A60AA601848C5F81480E7
:10115000103850F8260000EB8710C16821F04001DC
:10116000C160C16821F08001C160C0F808A008FB1F
:1011700009F101864286F80700D0102000EB5701E4
:101180000BFA01F00A4951F82610D1F8B0211043AA
:10119000C1F8B00105B0BDE8F08F000012010810E1
:1011A0001601081010010810802A08108421001070
:1011B0006C21001070B504461348C088904200D8D6
:1011C00002460023204600F02FF81048005D10B1C1
:1011D0001CB10F4902E0012101E00E49095C002524
:1011E00068B10D4E56F824300C4800BF00EB442285
:1011F0002046FFF751FC46F82450002070BD084EF1
:1012000056F824300748F1E7400108101001081093
:1012100012010810160108102C010810800908108E
:101220001C01081080050810F8B5254B4FF0080E7A
:10123000002653F82050234B1B5C0DE001244FF493
:101240007A6C0096009F7F1C00976745FAD32700B1
:10125000A4F10104A4B2F4D113B118B11A4F02E001
:10126000012401E0194FFC5C0EEB8417EF59FF07D6
:10127000E4D04FF00C0C0CEB84142C592406DDD474
:10128000002412E00D5DA3B1114E56F82070DFF876
:1012900044C000BF0CEB402C07F80C5056F820500F
:1012A0006D1C46F82050641CA4B29442EAD300207E
:1012B000F8BD094E56F82070DFF820C0EAE70000BC
:1012C00074210010100108101201081016010810F6
:1012D0002C010810800908101C0108108005081056
:1012E0000A48416A11F0010F0FD0016811F0010F97
:1012F00003D1416A41F0010141620548017881F062
:10130000010101700120FFF719B970470070084012
:10131000EC00081008B1092000E0082001218140FC
:1013200040094FF0E02202EB8000C0F80011704746
:1013300030B53D4B53F8201001F5E0710A6822F0FA
:1013400080120A604A6822F080124A608A6822F09D
:1013500080128A60CA6822F08012CA60A1F5E0712A
:1013600058B9D1F8D02122F08012C1F8D021D1F89B
:10137000D42122F08012C1F8D42101F5A2714FF0DE
:10138000FF344C6300228A630C608D6E8D668D6F16
:101390008D67A1F5A27100BFD1F8B051002DFBD12E
:1013A000C1F8B441D1F8B441002CFBD101F5A071D2
:1013B0000C6824F47F040C601C4C54F820408C61B1
:1013C0001B4C8C6053F82010C1F8542153F82010A6
:1013D000D1F8543143F08073C1F8543115490A549F
:1013E000002105E008B1144B00E0144B5A54491C8D
:1013F00010B10429F6D301E00629F6D3104941F8CB
:101400002020104941F820200F4941F820200F49A1
:1014100041F820200E4941F820200E4900EB400001
:1014200001EBC000426130BD6C210010742100103E
:10143000C701010010010810120108101601081060
:10144000080108101C0108103401081024010810BC
:101450002C010810802A0810074A002952F82000A1
:10146000D0F8401102D041F0010101E021F001016A
:10147000C0F84011704700006C21001070B5284D75
:101480000446285DA0BBC4F10100285C38B90020E7
:10149000FFF724F90020FFF7C9F9C007FAD084B19B
:1014A0000320FFF7E5F801231A4619466E20FFF7DF
:1014B000F9F80120FFF7C6F81A48005D01280DD0A1
:1014C0000FE00120FFF7D4F801231A4619466520E2
:1014D000FFF7E8F80120FFF7B5F807E012491220FE
:1014E00008601248016841F08071016001202855B0
:1014F0000F48022150F82420C2F8401150F824006F
:10150000D0F840219207FBD4C0F8A81114B90949BA
:10151000092008602046BDE87040FFF709BF0000C1
:101520004A0108103C010810806C0840847100409A
:101530006C210010A461004010B56920FFF77EF90E
:101540000149486110BD0000EC00081070B50C485E
:101550000C49016000F0F2FC00F01AF80A490B4D4A
:10156000002000BF01EB800411F820206378D20135
:1015700002EB830264885451401C1128F2D370BDE1
:1015800008ED00E000000010282100100060084075
:1015900070B5FFF779F80023012206210420FFF738
:1015A0008BF9324A324C134621460620FFF7BAF92E
:1015B0000023012209210420FFF77EF92D4A21464C
:1015C00013460620FFF7AEF92B4D002405EB8400EF
:1015D000C3788278417815F82400FFF76DF9641C10
:1015E000162CF3D32548416821F00C014160416875
:1015F00041F00301416020490020214D583100BFD6
:1016000001EB800411F820206378D20102EB830201
:1016100064885451401C0628F2D305220921042075
:10162000FFF766F90023012210210520FFF744F996
:10163000022209211046FFF75BF90F4A00217032A0
:101640000620FFF7EFF9042207210020FFF750F9E9
:1016500002220C210320FFF74BF9BDE87040012363
:101660000F211A460320FFF727B9000000E1F50516
:10167000001BB70000CB280CA8200010003004404D
:10168000006008402DE9FE4FDFF89C910546674A4F
:1016900059F8250005EB450102EBC106D0F8BC71F5
:1016A000C0F8BC71002F7DD000244FF4E07A4FF0D9
:1016B0000108DFF87CB1ACE008FA04F0384263D0EE
:1016C00059F825100AEB84000858C0F3810001285E
:1016D00025D05BF825100C2000EBC4100858C0F38F
:1016E0000E42302000EBC41001900B5A9A1A0A5295
:1016F000706990B3B16889B35BF825200198105ADE
:10170000029000200090308A8BB282B22846316865
:10171000FFF7C6FC5BF82520DDE9010127E05BF857
:101720002520302000EBC410105A00905BF82520D3
:101730000C2101EBC4115158C1F30E41401A009025
:1017400069462046FEF748FF02466006010E4FF448
:1017500000732846FFF7A0F912E002E0FFE700203F
:1017600070615BF825203220414600EBC410115215
:10177000A4B35BF825100198085A2E4941F82500BA
:1017800000212046FFF7D3FA04F1100108FA01F016
:1017900038423CD059F825000AEB84014058C0F388
:1017A000814000E03DE001281ED0B06848B35BF8FE
:1017B0002520302101EBC4110291525A0021CDE9BC
:1017C000001283B2308A316882B22846FFF768FC83
:1017D0005BF82500DDE90112815214E0FFE75BF8B8
:1017E0002500008E1449C9E769462046FEF7F4FE3D
:1017F000024608EB4400C1B22846009BFFF74CF9B3
:1018000001E00020706101212046FFF790FA641C7E
:10181000E4B20DB1082000E00C20B4EB500FFFF44F
:101820004BAFBDE8FE8F00006C210010802A08102D
:1018300074210010340108100801081004480178D0
:101840000078012802D10020FFF7B4B970470000EA
:101850003C010810034841784078012801D1FFF786
:10186000A9B970473C010810F0B4404B404C1A46EF
:101870001978557811F01F0651883E4A05D0022E7E
:1018800071D111F0FF0F0BD02EE0C9B201296AD13E
:10189000032D03D00021384B997025E00121FAE790
:1018A000197911F00F015ED021544FF4E073032D2C
:1018B00003D000282DD0314D2CE0002801D02F4D31
:1018C00000E02F4D6D5C4FEA550503EB850652F89D
:1018D0002050AE5946F0011640D141E0795C4FEA04
:1018E000510103EB81016E504FF00001215452F879
:1018F000201001F5BE710A6B0A63224B4FF0000203
:1019000043F820200A6842F001020A60F0BCFFF7A9
:101910001BBA1B4D6D5C4FEA550503EB850652F86B
:101920002050AE5926F0011601D0144F00E0144F9C
:10193000795C4FEA510103EB81016E5001D00F4DEC
:1019400000E00F4D215C6D5C4FEA550503EB850609
:1019500052F82050AE5946F0401601D0074FBDE76F
:10196000074FBBE7FFE7F0BC7047000040010810DD
:10197000100108106C210010040108101201081059
:10198000160108101C0108102DE9F04104462948F1
:1019900050F8240000F5BE70016B0163264D00274E
:1019A00045F82470016841F0010101602348264E8A
:1019B000A44601782248035D2248002B00EB442214
:1019C000224800EB44200DD056F82CC00CF8001033
:1019D00056F8241001F1010146F824100DD14FF002
:1019E00001010FE055F82CC00CF8021055F8241036
:1019F00001F1010145F82410F0E70CB1144900E0B1
:101A00001449C95C63B156F8243002462046FFF7FA
:101A100043F8204646F82070BDE8F041FFF794B93E
:101A2000204655F82030FFF737F8204645F820705B
:101A3000F2E700006C2100101C01081004010810DE
:101A400010010810800508102C01081080090810EA
:101A50001201081016010810F8B5044622486B461A
:101A6000027941882046FEF7C7FD020029D01F4EAB
:101A700056F8240000F5BE70016B01631C4F002571
:101A800047F82450016841F00101016020460099A7
:101A9000FFF790FB174B184932201A5D2AB1174FF8
:101AA00047F8245074B1164F0DE047F824500CB19C
:101AB000134A00E0134A51F82410127800EB821008
:101AC0000D52F8BD0F4F51F82410BA5C00EB821094
:101AD0000D5256F82400D0F87C111B5D01229A406B
:101AE0001143C0F87C11F8BD400108106C210010B2
:101AF0001C010810100108107421001024010810A6
:101B000012010810160108102DE9F0414B4B044654
:101B100000201D784A494B4A802D08D0822D6ED175
:101B2000187900F00F00105554B1474B09E0474BAE
:101B30005D7805B101209B7893B140F002000FE081
:101B4000434B185C4FF4E073400803EB800351F8FB
:101B50002400C05810F0011000D0012000231355BC
:101B600051F8241001F5BE710B6B0B63394D4FF02A
:101B7000000845F824800B6843F001030B6012F85D
:101B800004C0354A354E02EB4427354ABCF1000FFC
:101B900002EB4422234617D056F82330985456F8C7
:101BA0002410234601F1010146F8231019464FEA9B
:101BB000102014D155F82130D85555F8210000F1E6
:101BC000010045F8210013E055F82330D85555F8A9
:101BD0002410234601F1010145F82310E6E756F8E9
:101BE0002130985456F8210000F1010046F82100F8
:101BF00002D14FF0010106E011B1134801E01BE0F2
:101C0000134810F80C10BCF1000F20460BD056F80A
:101C10002030FEF741FF214646F82180BDE8F04123
:101C20000846FFF791B855F820303A46FEF734FFE2
:101C3000214645F82180F1E7BDE8F0814001081018
:101C40006C21001010010810120108100401081086
:101C5000160108101C010810800508102C0108103E
:101C60008009081070B504463649FFF759F9FFF7A7
:101C700065F8354D55F82400D0F8AC01002630B396
:101C80003049087849780A292CD2DFE801F0050D9F
:101C90002B0D2B14192B2127802801D0822821D12C
:101CA0002046FFF731FF1DE008B102281AD1204677
:101CB000FFF7DAFD16E050B9204600F04FF811E0CA
:101CC000802801D081280DD12046FFF7C5FE09E00C
:101CD000802807D12046FFF757FE03E010B92046C1
:101CE00000F094F855F82400D0F8AC11002927D062
:101CF00000F5BE70016B0163144941F8246001686E
:101D000041F00101016012494FF4E070002C01D054
:101D1000104A00E0104A095D525C4FEA520200EBA3
:101D2000820355F82420D35843F0011301D0094C05
:101D300000E0094C615C4FEA510100EB8100135057
:101D400070BD0000400108106C2100101C0108103B
:101D50001001081012010810160108102DE9F041B9
:101D600004462248224E807800F07F0556F8240071
:101D700000F5BE70016B01631E4A002142F8241079
:101D8000016841F0010101602046FEF7DDFF1A48BD
:101D90001A490823005D51F824204FF00C0C10B1B3
:101DA0001CB1174F02E0012101E0164F395C03EB33
:101DB0008117D759FF07F2D00CEB81115158090652
:101DC000EDD456F824106806C1F8540156F82400E2
:101DD000D0F8541141F08071C0F854110DB10320B6
:101DE00000E0022008490855BDE8F08140010810D4
:101DF0006C2100101C010810100108107421001043
:101E000012010810160108104801081070B50446A8
:101E10001048817801291BD80F4850F8240000F59C
:101E2000BE70026B02630D4B002243F8242002684F
:101E300042F0010202600A4D20462970FEF784FF3D
:101E400008492A7804200855BDE87040FEF770BFA5
:101E500070BD0000400108106C2100101C0108102A
:101E600004010810480108107047000070B50446CE
:101E700006480D4601552046FFF700FB294620463F
:101E800000F008F802490120087070BD3C010810FC
:101E90003E0108101CB501291AD104460D48002145
:101EA00001550D480B460A4601700C4801700C485C
:101EB00001704020CDE900012046FEF7A5FF204635
:101EC000FFF728FA2046BDE81C400121FFF7C4BAFD
:101ED0001CBD00004801081004010810060108108C
:101EE0000501081070B504460948005D00280DD0B2
:101EF000084E0020355D3055074850F82400D0F8D2
:101F0000AC0110B12046FFF7ADFE355570BD0000A5
:101F100048010810100108106C21001002E008C8E8
:101F2000121F08C1002AFAD170477047002001E053
:101F300001C1121F002AFBD1704700000CB50C49EB
:101F40000A480A1D0968009111680191094A00991F
:101F5000914209D10199A1F18852113A04D1016845
:101F600041F47001009101600CBD000088ED00E0BB
:101F700040EF00E02100111010B5002821D0114BD6
:101F8000001F0022196803E0814203D80A4649680D
:101F90000029F9D152B11368841A9C4204D1006817
:101FA00018441060104602E0506000E0186039B13B
:101FB00002680B1A934203D10B681A440260496805
:101FC000416010BD4C0108100024FEF787FAFEF7AF
:101FD00075FA124D0121A87AFFF748FF104FA5F1BD
:101FE00008084FF6FF7600BFFEF7B4FA00F00100D4
:101FF000A0420DD084F00104002006EAC432D8F8D3
:10200000041002E027F81020401CB0EB910FF9D328
:10201000A87A0121FFF766FFE6E700000800081034
:1020200054010810F0B50B30154D20F007010024C5
:10203000144A0FE003688B420BD38B4205D95E1A1A
:1020400043184768C3E9006700E04368136002C0B3
:1020500004E0021D10680028ECD12046002802D1BF
:10206000286808B10020F0BD064A07481060074AFA
:10207000121A22F00702C0E9002401202860D7E7E5
:10208000500108104C010810B42A0810B03A08108A
:10209000000005000A002000240009004000400064
:1020A00005006000A600040000010100090901000C
:1020B0000A090100010701010209010006090100E6
:1020C0000C09010108030100070301000D090100CB
:1020D0000E0901000F09010010090100110901009A
:1020E0001209010013090100141101001911010066
:1020F0001A1101001B1101000B0E0100030F010159
:102100000303F3000304F3000305F3000306F300E5
:102110000307F3000308F3001D600000FA7F1606B2
:102120000000000000000000010FF3000000F200BA
:102130000110F7000001B6000113F0000112B30016
:102140000114B3000111F3000200B700020B1800E4
:10215000020C18000300F2000600F4000702F2006F
:102160000602F3000701F2000601F30000600040E0
:10217000007000400018081000200810002208100D
:10218000802308108024081080260810AC2100103D
:102190000000081054010000980100106022001097
:1021A000540108105C3B00002C1F00107380BB23FF
:1021B0000101A20212A71C0810AB041AB3043B12BF
:1021C000011A1740C91F4720021A0103140902709F
:1021D0001302015DC03209043B140924011B011ED6
:1021E0000B2D0C24020123411C0924030D190C1B87
:1021F00009041019162909190119092C0724011BB2
:102200003A172E151005401F13112B132256134495
:10221000AC19932D0905810D61112B07255D211046
:10222000080403090408034E125812501C36034CCC
:10223000061243125512531242126C1269126212A4
:1022400020124112751A640C1A6F0C1249126E1A80
:1022500070101A740C124412651A6D16016B00008E
:0400000510000115D1
:00000001FF
