:020000041400E6
:1000000010350010BD010014C5010014C701001413
:10001000C9010014CB010014CD0100145A5A5A5AD8
:10002000D7010014D7010014D7010014CF01001428
:10003000D1010014D7010014D3010014D50100141C
:10004000D9010014D9010014D9010014D7010014FA
:10005000D9010014D9010014D9010014D9010014E8
:10006000511F0014691F0014D9010014D901001494
:10007000D9010014D9010014D9010014D9010014C8
:10008000D9010014D9010014D9010014D9010014B8
:10009000D9010014D9010014D9010014D9010014A8
:1000A000D9010014D9010014D9010014D901001498
:1000B000D9010014D9010014D9010014D901001488
:1000C000E5140014D9010014D9010014D901001459
:1000D000D9010014D9010014D9010014D901001468
:1000E000D9010014D9010014D9010014D901001458
:1000F000D7010014D9010014D9010014D90100144A
:10010000D7010014D9010014D7010014D90100143B
:10011000D901001400F002F800F040F80AA090E8BD
:10012000000C82448344AAF10107DA4501D100F0B2
:1001300035F8AFF2090EBAE80F0013F0010F18BF3F
:10014000FB1A43F0010318475826000078260000E8
:10015000103A24BF78C878C1FAD8520724BF30C8F3
:1001600030C144BF04680C607047000000230024C5
:1001700000250026103A28BF78C1FBD8520728BFB7
:1001800030C148BF0B6070471FB502F085FA9DE88B
:10019000030000F065F91FBD10B510BD00F0EEF9C9
:1001A0001146FFF7F1FF02F061FA00F00CFA03B418
:1001B000FFF7F2FF03BC02F039FA00000A4880475B
:1001C0000A480047FEE7FEE7FEE7FEE7FEE7FEE738
:1001D000FEE7FEE7FEE7FEE7FEE70000044805490C
:1001E000054A064B70470000611C001415010014FD
:1001F00010230010103500101033001010330010C1
:1002000070B5064600F010F9056806F10B0020F005
:100210000704B4429CBF002070BD2B466A68BAB187
:100220001068A04210D304F1080188423CBF506816
:10023000586007D35168101941601168091B0160AB
:1002400058601460101D70BD13465268002AE7D133
:100250002146284600F0F0F80028DED170BD70B5C8
:100260000446051F00F0E0F80068002C14BF446845
:1002700070BD002C18BFAC423CBF20466468F8D368
:1002800001680A18AA4218BF456003D12A680546CA
:100290001144016028684119A1421CBF6C6070BD07
:1002A0006168696021680844286070BD40EA010304
:1002B00010B59B070FD1042A0DD310C808C9121F0F
:1002C0009C42F8D020BA19BA884201D9012010BD49
:1002D0004FF0FF3010BD1AB1D30703D0521C07E016
:1002E000002010BD10F8013B11F8014B1B1B07D17A
:1002F00010F8013B11F8014B1B1B01D1921EF1D1EB
:10030000184610BD032A40F2308010F0030C00F0B4
:10031000158011F8013BBCF1020F624498BF11F83F
:1003200001CB00F8013B38BF11F8013BA2F10402F8
:1003300098BF00F801CB38BF00F8013B11F0030370
:1003400000F0C480083AC0F0088051F8043B083A35
:1003500051F804CBA0E80810F5E7121D5CBF51F876
:10036000043B40F8043BAFF30080D20724BF11F8F0
:10037000013B11F801CB48BF11F8012B24BF00F855
:10038000013B00F801CB48BF00F8012B70474FF04C
:1003900000020429C0F0128010F0030C00F01B8052
:1003A000CCF1040CBCF1020F18BF00F8012BA8BF60
:1003B00020F8022BA1EB0C0100F00DB85FEAC17C24
:1003C00024BF00F8012B00F8012B48BF00F8012BD7
:1003D00070474FF0000200B5134694469646203908
:1003E00022BFA0E80C50A0E80C50B1F12001BFF4EE
:1003F000F7AF090728BFA0E80C5048BF0CC05DF854
:1004000004EB890028BF40F8042B08BF704748BFA1
:1004100020F8022B11F0804F18BF00F8012B704715
:10042000704770477047000000487047B8220010BE
:10043000704770477047704738B504460A46002039
:100440006946AFF30080002808BF38BD0246009916
:10045000204600F071F8012038BD012000F086B878
:10046000F8B5AFF30080054600200C46102000BF11
:100470000646A819A0420DD9324669460020AFF3BE
:100480000080070008BF00F071F80098A04218BF74
:100490000546C419FFF7C8FF05600746F01D20F0A8
:1004A00007004619284600F00AF8B44208BFF8BD14
:1004B000A21B31463868BDE8F84000F03DB8002185
:1004C0000160C0E9011070471020704710B5203A54
:1004D000C0F00B80B1E81850203AA0E81850B1E8FD
:1004E0001850A0E81850BFF4F5AF5FEA027C24BFB3
:1004F000B1E81850A0E8185044BF18C918C0BDE8AA
:1005000010405FEA827C24BF51F8043B40F8043B72
:1005100008BF7047D20728BF31F8023B48BF11F827
:10052000012B28BF20F8023B48BF00F8012B704781
:1005300000487047B0220010034640688C460028EF
:1005400018BF88423CBF03464068F8D31868184477
:10055000884207D00CF1030020F00700001D411A6B
:10056000521A0146081D0A60FFF779BE10B500F067
:1005700035F8BDE8104000F02CB870477546FFF71D
:10058000D7FFAE4605006946534620F00700854672
:1005900018B020B5FFF722FEBDE820404FF000065E
:1005A0004FF000074FF000084FF0000B21F007015B
:1005B000AC46ACE8C009ACE8C009ACE8C009ACE89E
:1005C000C0098D4670470446AFF300802046FFF710
:1005D000EEFD002801D002F029B8704710B50128BF
:1005E00005D0002103A000F021F8012010BD09A1D1
:1005F000F8E7000053494752544D454D3A204F7596
:1006000074206F662068656170206D656D6F72790A
:10061000000000003A2048656170206D656D6F72C2
:100620007920636F727275707465640070B50546E9
:100630000C460A2000E06D1C00F011F835B1287856
:100640000028F8D102E0641C00F009F814B1207809
:100650000028F8D1BDE870400A20AFF3008008B54B
:1006600069468DF800000320ABBE08BD10B5C0225E
:100670000721022000F0FAFA0023BDE81040802292
:100680001946014800F0E5BA00400F4010B501F0EE
:10069000DDFA44220621022000F0E8FAD2220521E8
:1006A000022000F0E3FA44220721012000F0DEFAE4
:1006B0000D4C012306220521204600F0CAFA0A4803
:1006C0000121A03081710B460C22204600F0C1FAB6
:1006D00001230B221946204600F0BBFA02490120F3
:1006E00020310873C87210BD00400F4070470000F1
:1006F000044A81F0010118B1012800D1D17270477C
:100700001173704720400F4010B500240722214686
:10071000034800F097FA00B90124204610BD0000FC
:1007200000400F4070B51D46049E01F08DFA04464E
:10073000FFF7EAFFC2B20021E00700D00121600705
:1007400001D541F00201200701D541F00401E00686
:1007500001D541F00801A00701D541F01001D007F3
:1007600001D041F02001297001203080002070BDAF
:1007700010B518781C46C00701D0012100E0002107
:100780000020FFF7B5FF2078800701D5012100E0A8
:1007900000210120FFF7ACFF2078400701D501219F
:1007A00000E000210220FFF7A3FF2078000701D519
:1007B000012100E00021BDE810400320FFF798BFB1
:1007C00010B50A0ACCB200210846032A11D004DC75
:1007D000012A07D0022A22D107E0212A18D0222A92
:1007E0001DD119E00F49122019E00E4912312320C2
:1007F00015E00C4A2C3A24B1012C04D0022C0ED165
:1008000003E0116802E0516800E09168087806E0B2
:1008100004492431092002E00249203920201960CE
:1008200010BD00002C00001005490028486802D0C7
:1008300020F0200001E040F02000486070470000F8
:10084000003004400248416C41F0010141647047AE
:10085000000005401C2806D2034901EB8000C16D51
:1008600021F00101C1657047000005400549886914
:100870008A6920F00200824200D0886120F00100E5
:10088000886170470000054010B5012401B10324C0
:100890000AB144F00404022B01D144F02004B0F565
:1008A000917F03D9044941F8304010BD034901EB61
:1008B000C000C0F8004110BDE81705400010054019
:1008C000034901EB0010016A21F001010162704748
:1008D000000005401C2805D2054901EB8000C06DD1
:1008E000C10701D011207047C0F3046070470000B9
:1008F0000000054010B5FFF7EDFFBDE8104000F027
:1009000001B80000024600201249112A0CD2DFE88B
:1009100002F0090E0B0C0B0B0E100B120B0B141626
:10092000181A1C004FF4004070470B4870470846E7
:1009300070470A48704700F03DB8002106E00121E9
:1009400004E0022102E0032100E00421104600F04F
:1009500007B80000001BB70080F0FA0200389C1CAA
:1009600010B50B46084600F017F80246184600F08E
:1009700009F804461046FFF7C5FF641CB0FBF4F00D
:1009800010BD0000034901EB8000806CC0F38300C0
:100990007047000000000540054901EB8000806CB5
:1009A000C10701D011207047C0F3046070470000F8
:1009B00000000540F8B5144D6C6CC4F30360FFF7FC
:1009C000A1FF12A109680091296CC90713D0C4F3D3
:1009D0000742C4F30131C4F30125C4F3C013521C10
:1009E000C4F38014491C1DF80550234305D0B0FB07
:1009F000F1F05043F8BD0020F8BD6B00B2FBF3F2FC
:100A0000B0FBF1F05043F8BD0000054001020408BE
:100A1000024901EB0010C06970470000000005406A
:100A20002DE9F041B0F5917F03D9194951F83040D3
:100A300004E0184901EBC001D1F80041E10725D0DD
:100A40001C210022144B0DE033F81660864208D8B2
:100A50006D88854205D302EB420003EB400001792B
:100A600007E0521C02EB420603EB46052F798F424A
:100A7000EAD10846FFF73EFF6109490704D0022189
:100A8000B0FBF1F0BDE8F0810121F9E70020F9E7C2
:100A9000E8170540001005406827001430B50B4CDE
:100AA00004EB8005EC6D1C280DD211290AD00848F2
:100AB00004400AB144F400640BB144F0010444EA78
:100AC0000160E86530BD44F00100FAE70000054030
:100AD000FEF7FFE00A4B10B503EB8003986C521E43
:100AE000112908D0074C204040EA016040EA82000A
:100AF00040F4006001E040F00100986410BD000087
:100B000000000540C2FFFFE02DE9F0479946154679
:100B100088468246FFF7F6FE0646681C1AD0B5FBEB
:100B2000F6F44B4642462146304600F07FF8074631
:100B3000641C4B4642462146304600F077F837B1F8
:100B400018B1E91B401B814202D9611E15E008B1B2
:100B5000214612E0B8FBF6F4B9FBF6F700254B4648
:100B600042462146304600F061F800B12546BC42BD
:100B700001D2641CF3E72DB129465046BDE8F04789
:100B800000F004B80020BDE8F08700002DE9F04136
:100B90000C460546FFF7B6FE174F002633467A6C23
:100BA000012122F0F85242EA0562144D60432A40C6
:100BB000134D641EA84201D30EE05B1C490001FBEB
:100BC00000FCAC45F9D3210441EA063141EA032196
:100BD000114341F0400106E00A49884208D242EA46
:100BE000044141F0C00121F001017964BDE8F081C8
:100BF000FFF728FE0020F9E7000005403DCC00FF8C
:100C0000005F4C0900D0121310B51368064C43EA7C
:100C1000006304EB011003625168416291688162D4
:100C2000D068E06310BD00000000054048439042DA
:100C300004D30349884201D8984200D90020704764
:100C400000CB280C00EB4110805C002800D0012074
:100C5000704700EB810000F50050012191400268CF
:100C60000BB10A4300E08A4302607047C00100EB09
:100C70008100014942507047006008402DE9F05F53
:100C800007463F480E46DFF8FCB050F827009A466A
:100C900000EB46143A485BF827100838904650F8A5
:100CA00027004FF0010900EB8615F00700D0102057
:100CB00000EB560209FA02F0D1F8B8211042F4D143
:100CC00020212046FFF785FB5BF8272073084FF4AF
:100CD000E07101EB83015358C3F38103012B47D02B
:100CE0005158C1F38141012942D0C4F80090626893
:100CF0006AF31E426260616841F4004161606168AC
:100D000041F08001616008F580516FF30B01C4E987
:100D1000028108F500516FF30B01216108F5405184
:100D20006FF30B01616108F580416FF30B01A16165
:100D3000E96821F04001E960E96821F08001E9609B
:100D40000F4951F8271001EB4611A960A5F830A012
:100D5000F10700D010215BF8270001EB560209FAD9
:100D600002F1D0F8B0211143C0F8B011BDE8F09FF6
:100D7000C4F800902A6869F39F722A60B7E7000000
:100D8000902700148027001400E010460268D30763
:100D9000FBD00160704700002DE9FC5F0546454827
:100DA00050F82540D4F84801D4F8446106407FD07B
:100DB000C4F84461F00707D0D4F8AC01D4F8BC0102
:100DC00010B1284600F0E8FFF0034FF000094FD5BE
:100DD000D4F87801D4F87C1108405FEA0008C4F820
:100DE000780145D000274FF0010A4FF4007B38E02E
:100DF0000AFA07F010EA080F31D07906D4F8B821C2
:100E0000090E02422BD12C4A322303EB811352F8F4
:100E10002520D25A1ABB39B1284B05EB450203EB0A
:100E2000C202526962B11AE02548494640F825904D
:100E3000D4F87C0120F00100C4F87C01214808E0CE
:100E4000214B43F82590D4F87C218243C4F87C21BF
:100E50001E485B4600EB45222846FFF70FFF7F1C2C
:100E6000FFB20DB1082000E00C20B7EB500FBFD34C
:100E7000300601D500F060F8700619D5284600F05C
:100E800059FB13490220485540260023CDE900694B
:100E90004C461A461946284600F0B8F88023CDE99A
:100EA000006400221146284600E001E000F0AEF8A0
:100EB000BDE8FC9F802700148827001480220010C2
:100EC000EC00001040010010180100104009001053
:100ED000E40000102DE9F0410D461E461746044679
:100EE0002021FFF776FA01202060606867F31E403A
:100EF0006060606866F3CF306060606840F08000DA
:100F00006060A56005F58055280B0003E060BDE832
:100F1000F0810000004870478020001070470000FA
:100F2000014800F00BBC0000A4000010014800F0D4
:100F300021BC0000A40000100348818A002901D0D0
:100F4000491E818270470000A400001070B5294935
:100F5000294E4FF0000509780B06A6F10C010A5C3A
:100F60002BD5264C32232AB1083646F8205080B1C2
:100F70008E1C10E046F8205010B11F490A3901E0DC
:100F80001D49891F54F82000097803EB811145524F
:100F900070BD194EB61FB25C03EB821254F82030BC
:100FA0009D52174A52F82020D2F87C31095C01206A
:100FB00088400343C2F87C3170BD04461AB124B1A5
:100FC0000D480A3803E0012102E00B48801F815CD4
:100FD00062B1094E103656F824300A4800EB44221C
:100FE0002046FFF74BFE46F8245070BD56F82430DB
:100FF0000548F3E7DC00001000010010882700140A
:101000008027001440050010400100102DE9F84F22
:1010100081469B4690460E46180000D001203D496F
:1010200000EB460551F829004FF4E07101EB860111
:101030004718D7F800A0384951F82900402100EBA3
:1010400085142046FFF7C5F90A98C0F30901206806
:1010500061F31A402060206840F40040206020685E
:1010600040F0005020600120A0600021BBF1000F83
:101070000CD04FF440231FFA8AF003EA884202435F
:1010800042F44004B8F1010F28D035E04FEA1A428B
:101090000C244FEA024204EA8803134343F0C004DD
:1010A000B8F1010F0ED0E90700D0102101EB550176
:1010B0008840184951F82910D1F87C211043C1F813
:1010C0007C0119E004200091386069463046FFF742
:1010D00021FF0246E9B24FF400730AE04FF480208A
:1010E0000091386069463046FFF714FF009B0246C6
:1010F000E9B24846FFF7C2FD3C6006B90025E9B2F7
:10110000B9F1000F01D0054800E0054881550120E4
:10111000BDE8F88F8027001488270014F60000101F
:10112000FA000010064A52F82000826A0A60C26A79
:101130004A60C988002901D000214186704700001B
:10114000882700142DE9F0430446244F244D32260D
:1011500057F82430285D4FF0000814B1DFF884C040
:1011600001E0DFF884C01CF800C006EB8C1C33F8EB
:101170000CC0BCF1000FF0D04FF001090023204655
:1011800000F03AF8295D404629B1184A42F8240097
:101190007CB1144A0EE0164941F824000CB1114903
:1011A00000E0114957F82420097806EB81115052CC
:1011B00011E00D4A515C57F8242006EB8111505282
:1011C0000C4850F82400D0F87C212B5D09FA03F17B
:1011D0000A43C0F87C210020BDE8F0838827001472
:1011E000F4000010F6000010FA00001008010010D2
:1011F00000010010802700142DE9F043224F89469A
:10120000224C395C224B21B153F8201021B100212E
:1012100020E054F82010F9E70520BDE8F0833D5C9C
:10122000E5B11C4E56F82050DFF86CC00CEB402C9A
:1012300015F80C5056F820C080460CF1010C46F809
:1012400028C053F82060761E43F8206009F801504A
:10125000491C89B29142E2D30020DEE70F4E56F8D6
:101260002050DFF83CC00CEB402C15F80C5056F821
:1012700020C080460CF1010C46F828C054F82060CC
:10128000761E44F82060E1E7F4000010EC00001046
:1012900018010010080100104009001000010010A2
:1012A000400100102DE9FF4F81B09846914606009D
:1012B00001D03B4800E03B483B494FF0010B895DC2
:1012C000475C3A4906EB460001EBC005384850F848
:1012D00026A0384850F82600F90700D0102101EB6D
:1012E00057020BFA02F1D0F8B8211142F4D10024D0
:1012F00018E0102C18D0A8F10100844222D00F2C45
:1013000020D0002302990AEB441004FB09114A463D
:101310000090FFF7DFFD1CB150460099FFF734FD48
:10132000641CA4B24445E4D30022B8F1100F0BD9D9
:10133000A8F11000A8600298C5F8109000EB091001
:10134000286004E00123DDE72A612A60AA601848CA
:10135000C5F81480103850F8260000EB8710C168DB
:1013600021F04001C160C16821F08001C160C0F876
:1013700008A008FB09F101864286F80700D010207A
:1013800000EB57010BFA01F00A4951F82610D1F889
:10139000B0211043C1F8B00105B0BDE8F08F0000E6
:1013A000F6000010FA000010F40000108022001077
:1013B000982700148027001470B504461348C0888D
:1013C000904200D802460023204600F02FF8104833
:1013D000005D10B11CB10F4902E0012101E00E498E
:1013E000095C002568B10D4E56F824300C4800BF4A
:1013F00000EB44222046FFF741FC46F82450002031
:1014000070BD084E56F824300748F1E7DC000010A4
:10141000F4000010F6000010FA0000101001001097
:10142000400500100001001040010010F8B5254BE8
:101430004FF0080E002653F82050234B1B5C0DE0A4
:1014400001244FF47A6C0096009F7F1C009767453B
:10145000FAD32700A4F10104A4B2F4D113B118B156
:101460001A4F02E0012401E0194FFC5C0EEB8417D7
:10147000EF59FF07E4D04FF00C0C0CEB84142C59FF
:101480002406DDD4002412E00D5DA3B1114E56F800
:101490002070DFF844C000BF0CEB402C07F80C5064
:1014A00056F820506D1C46F82050641CA4B294429B
:1014B000EAD30020F8BD094E56F82070DFF820C0AE
:1014C000EAE7000088270014F4000010F60000107E
:1014D000FA0000101001001040050010000100107B
:1014E000400100100A48416A11F0010F0FD0016855
:1014F00011F0010F03D1416A41F001014162054839
:10150000017881F0010101700120FFF7F1B8704707
:1015100000700840C000001008B1092000E0082059
:101520000121814040094FF0E02202EB8000C0F829
:101530000011704730B53D4B53F8201001F5E071B4
:101540000A6822F080120A604A6822F080124A601B
:101550008A6822F080128A60CA6822F08012CA600B
:10156000A1F5E07158B9D1F8D02122F08012C1F86C
:10157000D021D1F8D42122F08012C1F8D42101F574
:10158000A2714FF0FF344C6300228A630C608D6EB1
:101590008D668D6F8D67A1F5A27100BFD1F8B05136
:1015A000002DFBD1C1F8B441D1F8B441002CFBD1DE
:1015B00001F5A0710C6824F47F040C601C4C54F8F5
:1015C00020408C611B4C8C6053F82010C1F85421D2
:1015D00053F82010D1F8543143F08073C1F85431DE
:1015E00015490A54002105E008B1144B00E0144BE2
:1015F0005A54491C10B10429F6D301E00629F6D348
:10160000104941F82020104941F820200F4941F8A5
:1016100020200F4941F820200E4941F820200E4992
:1016200000EB400001EBC000426130BD8027001498
:1016300088270014C7010100F4000010F600001014
:10164000FA000010EC00001000010010180100105A
:10165000080100101001001080220010074A002924
:1016600052F82000D0F8401102D041F0010101E011
:1016700021F00101C0F840117047000080270014DC
:1016800070B5284D0446285DA0BBC4F10100285C5C
:1016900038B90020FFF714F90020FFF7B9F9C007A7
:1016A000FAD084B10320FFF7D5F801231A46194672
:1016B0006E20FFF7E9F80120FFF7B6F81A48005D41
:1016C00001280DD00FE00120FFF7C4F801231A46CE
:1016D00019466520FFF7D8F80120FFF7A5F807E0C5
:1016E0001249122008601248016841F080710160BF
:1016F000012028550F48022150F82420C2F840113B
:1017000050F82400D0F840219207FBD4C0F8A8116B
:1017100014B90949092008602046BDE87040FFF768
:1017200009BF000020010010D8000010806C0840A4
:101730008471004080270014A46100401CB5002281
:1017400002618282012101744FF4FA7141820179B0
:1017500009B1022200E000224188CDE9001241785F
:10176000407B80230322FFF751FC002800D001209A
:101770001CBD00002DE9FF5F0446417BBF4850F8C7
:101780002100D0F8AC210026002A70D0BC4A257870
:101790009388AB426BD11346751EB3F802C09646D0
:1017A00092F8018005EB1C2B1A78B64DDFF8D89221
:1017B000B64FDFF8DCA2B8F10C0F6DD2DFE808F00D
:1017C0006C06FDCB6C6C6C6C6C6EFCFBA12A63D15F
:1017D000ADF804608DF808C0207BB1460BF0FF0720
:1017E0000646FEF70DFD82463146FEF7D0FD01A804
:1017F000009053463A4602A92046FEF793FFA068A0
:1018000018B1227B5146FEF77DFD617BA14F002080
:10181000DFF868827854617B58F8210000F5BE70CB
:10182000026B02634E4645F82190016841F00101C8
:101830000160607BBDF804205146FFF7BDFD607B71
:10184000954A32213B5C2BB1944C44F8206078B12E
:10185000934C0EE045F8206008B1914B00E0914BAD
:1018600052F820001B7801EB8311465211E013E07F
:101870008C4C52F82020E35C01EB8311565258F84F
:101880002010D1F87C213B5C012098400243C1F834
:101890007C215046FEF7E3FCBDE8FF9F212AFBD1E7
:1018A000BEF806000CF0FF0101910BF0FF0180462D
:1018B0000291FEF7A5FC0390617B704850F821006F
:1018C00000F5BE70026B0263AB4645F8216001680B
:1018D00041F001010160607B42460399FFF732FC51
:1018E000657B6C48405D10B11DB16D4902E001217E
:1018F00001E06C49095C70B157F825300AEB4522CC
:101900002846FFF7BBF947F825600198002808D062
:101910004FF0010107E05BF825305F4609EB4522F7
:10192000EEE74FF00001A8EB010080B2009002D07A
:101930004FF0010101E04FF00001039801EB0003BB
:10194000DDE901122046FEF713FF039804B0BDE85D
:10195000F05FFEF784BCA12A9ED100F5BE70026B39
:10196000026345F82160016841F001010160607B7C
:10197000227C7CE055F820C009EB40230CF80320C2
:1019800055F82020521C45F820200AE057F820C0C6
:101990000AEB40230CF8032057F82020521C47F88C
:1019A000202094F80D8011F8080038B1B8F1000F2C
:1019B00062D03B4904E01EE032E048E0012100E053
:1019C000095C48B157F828300AEB48224046FFF737
:1019D00055F947F8286008E055F8283009EB482207
:1019E0004046FFF74BF945F82860607B04B0BDE83E
:1019F000F05FFFF7ABBA7746212AADD100F5BE7094
:101A0000026B026345F82160016841F00101016049
:101A1000607BFFF79BFAB87800B1012020743BE7A8
:101A20007746212AFBD100F5BE70026B026345F8B0
:101A30002160016841F001010160607BFFF786FAD7
:101A400078884FF47F7101EA9010608224E7A12A20
:101A5000E5D100F5BE70026B026345F821600168B4
:101A600041F001010160618A607BC1F3870209498D
:101A70000B5C002B8AD17DE70A49A1E7802700147F
:101A8000DC000010000100104001001010010010E7
:101A900040050010F4000010882700140801001011
:101AA000F6000010FA0000102DE9FF5F0446407BAD
:101AB0005C49095C04291ED15B4A61781154607B42
:101AC00008B15A4B00E05A4B91464FF000065A5C61
:101AD000D307584A03D081B188B1544B10E008B104
:101AE000524B00E0524B52F82000595C322303EB7A
:101AF0008111405A98B9BDE8FF9F012101E04C4B8C
:101B0000595C52F82000082202EB81128258D20759
:101B1000F1D00C2202EB811140580006EBD4207B5F
:101B20000546FEF76DFB01908DF80C60ADF808607E
:101B30002946FEF72CFC02A80090002203A92046AB
:101B4000019BFEF7EFFD0546608A002708B1A08AD9
:101B500058B10020A168804679B1BDF808200198ED
:101B6000FEF7A4FB18B1012702E00120F2E70027ED
:101B7000227BA0680199FEF7C5FBBDF80820C2B31F
:101B80003D4355EA080544D0608AA082607B6378B3
:101B90004F4609F800309DF80C10274DDFF89CA047
:101BA000DFF89C90DFF89CB061B1607BABB159F875
:101BB00020800BEB402C08F80C1059F82010491C21
:101BC00049F82010607B00230199FFF72FFC647B0C
:101BD000385D78B184B115490FE055F820C00AEBA3
:101BE00040230CF8031055F82010491C45F820102C
:101BF000E8E70EE0012101E00D49095C68B159F800
:101C000024304D460BEB44222046FFF737F845F8C9
:101C100024600198FEF723FB6DE755F824300AEBAA
:101C20004422F1E7E4000010F4000010F600001078
:101C3000FA00001088270014000100104001001075
:101C400010010010400500100020704710B56920F9
:101C5000FEF7E6FE0149486110BD0000C00000101B
:101C600070B50C480C49016000F0E2FC00F01AF875
:101C70000A490B4D002000BF01EB800411F8202021
:101C80006378D20102EB830264885451401C11280E
:101C9000F2D370BD08ED00E000000014242700140A
:101CA0000060084070B5FEF7E1FD00230122062127
:101CB0000420FEF7F3FE324A324C1346214606203A
:101CC000FEF722FF0023012209210420FEF7E6FE91
:101CD0002D4A214613460620FEF716FF2B4D002401
:101CE00005EB8400C3788278417815F82400FEF76C
:101CF000D5FE641C162CF3D32548416821F00C0155
:101D00004160416841F00301416020490020214DBC
:101D1000583100BF01EB800411F820206378D20114
:101D200002EB830264885451401C0628F2D305223A
:101D300009210420FEF7CEFE0023012210210520F8
:101D4000FEF7ACFE022209211046FEF7C3FE0F4A41
:101D5000002170320620FEF757FF042207210020E1
:101D6000FEF7B8FE02220C210320FEF7B3FEBDE809
:101D7000704001230F211A460320FEF78FBE00009A
:101D800000E1F505001BB70000CB280CA4260014C9
:101D900000300440006008402DE9FE4FDFF89C91C0
:101DA0000546674A59F8250005EB450102EBC106D7
:101DB000D0F8BC71C0F8BC71002F7DD000244FF466
:101DC000E07A4FF00108DFF87CB1ACE008FA04F0EB
:101DD000384263D059F825100AEB84000858C0F344
:101DE0008100012825D05BF825100C2000EBC410E1
:101DF0000858C0F30E42302000EBC41001900B5A7B
:101E00009A1A0A52706990B3B16889B35BF82520B9
:101E10000198105A029000200090308A8BB282B252
:101E200028463168FFF73EFA5BF82520DDE901011D
:101E300027E05BF82520302000EBC410105A0090FA
:101E40005BF825200C2101EBC4115158C1F30E4160
:101E5000401A009069462046FFF75CF8024660068B
:101E6000010E4FF400732846FEF708FF12E002E06F
:101E7000FFE7002070615BF825203220414600EB2F
:101E8000C4101152A4B35BF825100198085A2E49CA
:101E900041F8250000212046FFF740F804F1100129
:101EA00008FA01F038423CD059F825000AEB8401C9
:101EB0004058C0F3814000E03DE001281ED0B068EA
:101EC00048B35BF82520302101EBC4110291525A2E
:101ED0000021CDE9001283B2308A316882B22846EF
:101EE000FFF7E0F95BF82500DDE90112815214E00B
:101EF000FFE75BF82500008E1449C9E769462046D4
:101F0000FFF708F8024608EB4400C1B22846009BE0
:101F1000FEF7B4FE01E00020706101212046FEF7CB
:101F2000FDFF641CE4B20DB1082000E00C20B4EB0E
:101F3000500FFFF44BAFBDE8FE8F00008027001468
:101F4000802200108827001418010010EC000010F7
:101F5000044801780078012802D10020FEF71CBF58
:101F600070470000D80000100348417840780128ED
:101F700001D1FEF711BF7047D8000010F0B4404BFC
:101F8000404C1A461978557811F01F0651883E4A80
:101F900005D0022E71D111F0FF0F0BD02EE0C9B287
:101FA00001296AD1032D03D00021384B997025E017
:101FB0000121FAE7197911F00F015ED021544FF495
:101FC000E073032D03D000282DD0314D2CE00028E4
:101FD00001D02F4D00E02F4D6D5C4FEA550503EB0E
:101FE000850652F82050AE5946F0011640D141E026
:101FF000795C4FEA510103EB81016E504FF0000113
:10200000215452F8201001F5BE710A6B0A63224B6D
:102010004FF0000243F820200A6842F001020A60F3
:10202000F0BCFEF793BF1B4D6D5C4FEA550503EB0B
:10203000850652F82050AE5926F0011601D0144FF3
:1020400000E0144F795C4FEA510103EB81016E50BF
:1020500001D00F4D00E00F4D215C6D5C4FEA55053E
:1020600003EB850652F82050AE5946F0401601D0D9
:10207000074FBDE7074FBBE7FFE7F0BC7047000025
:10208000DC000010F400001080270014E6000010AF
:10209000F6000010FA000010000100102DE9F041D8
:1020A0000446294850F8240000F5BE70016B016316
:1020B000264D002745F82470016841F001010160B8
:1020C0002348264EA44601782248035D2248002B6F
:1020D00000EB4422224800EB44200DD056F82CC0DF
:1020E0000CF8001056F8241001F1010146F82410F4
:1020F0000DD14FF001010FE055F82CC00CF8021083
:1021000055F8241001F1010145F82410F0E70CB155
:10211000144900E01449C95C63B156F82430024602
:102120002046FEF7ABFD204646F82070BDE8F041A2
:10213000FEF70CBF204655F82030FEF79FFD2046E5
:1021400045F82070F2E7000080270014000100101D
:10215000E6000010F4000010400100101001001013
:1021600040050010F6000010FA000010F8B5044613
:1021700022486B46027941882046FEF721FB020087
:1021800029D01F4E56F8240000F5BE70016B016384
:102190001C4F002547F82450016841F001010160FF
:1021A00020460099FFF708F9174B184932201A5DAD
:1021B0002AB1174F47F8245074B1164F0DE047F875
:1021C00024500CB1134A00E0134A51F8241012783D
:1021D00000EB82100D52F8BD0F4F51F82410BA5C7D
:1021E00000EB82100D5256F82400D0F87C111B5DD4
:1021F00001229A401143C0F87C11F8BDDC000010A8
:102200008027001400010010F4000010882700143B
:1022100008010010F6000010FA0000102DE9F0414E
:102220004B4B044600201D784A494B4A802D08D06C
:10223000822D6ED1187900F00F00105554B1474B24
:1022400009E0474B5D7805B101209B7893B140F0E0
:1022500002000FE0434B185C4FF4E073400803EBBF
:10226000800351F82400C05810F0011000D0012064
:102270000023135551F8241001F5BE710B6B0B634D
:10228000394D4FF0000845F824800B6843F00103F6
:102290000B6012F804C0354A354E02EB4427354A2C
:1022A000BCF1000F02EB4422234617D056F823302E
:1022B000985456F82410234601F1010146F82310E2
:1022C00019464FEA102014D155F82130D85555F849
:1022D000210000F1010045F8210013E055F82330FA
:1022E000D85555F82410234601F1010145F8231073
:1022F000E6E756F82130985456F8210000F1010025
:1023000046F8210002D14FF0010106E011B1134857
:1023100001E01BE0134810F80C10BCF1000F204640
:102320000BD056F82030FEF7A9FC214646F8218054
:10233000BDE8F0410846FEF709BE55F820303A46A0
:10234000FEF79CFC214645F82180F1E7BDE8F081CD
:10235000DC00001080270014F4000010F6000010CC
:10236000E6000010FA00001000010010400100100B
:10237000100100104005001070B504463649FEF704
:10238000D1FEFEF7D3FD354D55F82400D0F8AC0151
:10239000002630B33049087849780A292CD2DFE882
:1023A00001F0050D2B0D2B14192B2127802801D0AE
:1023B000822821D12046FFF731FF1DE008B1022815
:1023C0001AD12046FFF7DAFD16E050B9204600F09A
:1023D0004FF811E0802801D081280DD12046FFF769
:1023E000C5FE09E0802807D12046FFF757FE03E02D
:1023F00010B9204600F094F855F82400D0F8AC113C
:10240000002927D000F5BE70016B0163144941F823
:102410002460016841F00101016012494FF4E0704D
:10242000002C01D0104A00E0104A095D525C4FEACE
:10243000520200EB820355F82420D35843F00113D5
:1024400001D0094C00E0094C615C4FEA510100EBFE
:102450008100135070BD0000DC00001080270014C4
:1024600000010010F4000010F6000010FA00001047
:102470002DE9F04104462248224E807800F07F0585
:1024800056F8240000F5BE70016B01631E4A00215E
:1024900042F82410016841F0010101602046FEF776
:1024A00055FD1A481A490823005D51F824204FF0C1
:1024B0000C0C10B11CB1174F02E0012101E0164FC6
:1024C000395C03EB8117D759FF07F2D00CEB811170
:1024D00051580906EDD456F824106806C1F8540185
:1024E00056F82400D0F8541141F08071C0F854110E
:1024F0000DB1032000E0022008490855BDE8F08135
:10250000DC0000108027001400010010F40000100F
:1025100088270014F6000010FA000010E4000010F4
:1025200070B504461048817801291BD80F4850F82F
:10253000240000F5BE70026B02630D4B002243F8CD
:102540002420026842F0010202600A4D20462970F0
:10255000FEF7FCFC08492A7804200855BDE87040C5
:10256000FEF7DEBC70BD0000DC0000108027001408
:1025700000010010E6000010E400001070B50446F1
:1025800006480D4601552046FFF77AF829462046B1
:1025900000F008F802490120087070BDD800001052
:1025A000DA0000101CB501291AD104460D4800219B
:1025B00001550D480B460A4601700C4801700C4845
:1025C00001704020CDE900012046FEF71FFD2046A6
:1025D000FEF7A2FF2046BDE81C400121FFF73EB8F0
:1025E0001CBD0000E4000010E6000010E800001030
:1025F000E700001070B504460948005D00280DD0C2
:10260000084E0020355D3055074850F82400D0F8BA
:10261000AC0110B12046FFF7AFFE355570BD00008C
:10262000E4000010F400001080270014FEE7000012
:102630000CB50C490A480A1D0968009111680191FE
:10264000094A0099914209D10199A1F18852113AA0
:1026500004D1016841F47001009101600CBD0000DB
:1026600088ED00E040EF00E021001110FEF70EF8C9
:10267000FDF7FCFFFEF73AF8064C0121607BFFF7FF
:102680007DFF0448FFF710FA607B0121FFF7B2FFDE
:10269000F7E70000A40000104FF04070E1EE100AD0
:1026A0007047000000010100090901000A0901004A
:1026B0000107010102090100060901000C090101DD
:1026C00008030100070301000D0901000E090100C4
:1026D0000F09010010090100110901001209010090
:1026E0001309010014110100191101001A11010050
:1026F0001B1101000B0E0100030F01010303F30086
:102700000304F3000305F3000306F3000307F300DB
:102710000308F3001D600000FA7F160600000000A9
:1027200000000000010FF3000000F2000110F700AC
:102730000001B6000113F0000112B3000114B30050
:102740000111F3000200B700020B1800020C180080
:102750000300F2000600F4000702F2000602F30094
:102760000701F2000601F300000005000A00200046
:10277000240009004000400005006000A60004009D
:1027800000600040007000400010001000180010B1
:10279000001A0010801B0010801C0010801E00100A
:1027A000C027001400000010240100005001001494
:1027B000E428001424010010EC3300006C01001424
:1027C00061000010650000106D0000100600FF0998
:1027D00001A1010909150025FF750895018102096C
:1027E00008150025FF750895019102C0120110011E
:1027F00000000040C91F4F20010001020001090232
:102800002200010100C032090400000103000000A1
:1028100009211101000122200007058103080001A0
:10282000000403090408034E005800500036034C0E
:1028300000500043005500530042006C00690062E4
:10284000002000470065006E0065007200690063AB
:102850000020004800490044002000440065006D4D
:10286000006F00000001080000000000BC00001024
:102870000100000000000000000000000000000057
:102880000000000000000000000000000000000048
:102890000000000000000000000000000000000038
:1028A0000000000000000000000000000000000028
:1028B0000000000000000000000000000000000018
:1028C0000000000000000000000000000000000008
:1028D00000000000000000000000000000000000F8
:0428E00000000000F4
:0400000514000115CD
:00000001FF
